{
  "address": "0xAdb7D7A44c5d57153eF8805355562E15ABA602Ce",
  "abi": [
    {
      "inputs": [],
      "stateMutability": "nonpayable",
      "type": "constructor"
    },
    {
      "anonymous": false,
      "inputs": [
        {
          "indexed": true,
          "internalType": "address",
          "name": "account",
          "type": "address"
        },
        {
          "indexed": true,
          "internalType": "address",
          "name": "operator",
          "type": "address"
        },
        {
          "indexed": false,
          "internalType": "bool",
          "name": "approved",
          "type": "bool"
        }
      ],
      "name": "ApprovalForAll",
      "type": "event"
    },
    {
      "anonymous": false,
      "inputs": [
        {
          "indexed": true,
          "internalType": "address",
          "name": "operator",
          "type": "address"
        },
        {
          "indexed": true,
          "internalType": "address",
          "name": "from",
          "type": "address"
        },
        {
          "indexed": true,
          "internalType": "address",
          "name": "to",
          "type": "address"
        },
        {
          "indexed": false,
          "internalType": "uint256[]",
          "name": "ids",
          "type": "uint256[]"
        },
        {
          "indexed": false,
          "internalType": "uint256[]",
          "name": "values",
          "type": "uint256[]"
        }
      ],
      "name": "TransferBatch",
      "type": "event"
    },
    {
      "anonymous": false,
      "inputs": [
        {
          "indexed": true,
          "internalType": "address",
          "name": "operator",
          "type": "address"
        },
        {
          "indexed": true,
          "internalType": "address",
          "name": "from",
          "type": "address"
        },
        {
          "indexed": true,
          "internalType": "address",
          "name": "to",
          "type": "address"
        },
        {
          "indexed": false,
          "internalType": "uint256",
          "name": "id",
          "type": "uint256"
        },
        {
          "indexed": false,
          "internalType": "uint256",
          "name": "value",
          "type": "uint256"
        }
      ],
      "name": "TransferSingle",
      "type": "event"
    },
    {
      "anonymous": false,
      "inputs": [
        {
          "indexed": false,
          "internalType": "string",
          "name": "value",
          "type": "string"
        },
        {
          "indexed": true,
          "internalType": "uint256",
          "name": "id",
          "type": "uint256"
        }
      ],
      "name": "URI",
      "type": "event"
    },
    {
      "inputs": [
        {
          "internalType": "uint256",
          "name": "_projectId",
          "type": "uint256"
        },
        {
          "internalType": "string",
          "name": "_tag",
          "type": "string"
        },
        {
          "internalType": "bytes32",
          "name": "_msgHash",
          "type": "bytes32"
        },
        {
          "internalType": "bytes",
          "name": "_signature",
          "type": "bytes"
        }
      ],
      "name": "addTagstoProject",
      "outputs": [],
      "stateMutability": "nonpayable",
      "type": "function"
    },
    {
      "inputs": [
        {
          "internalType": "address",
          "name": "account",
          "type": "address"
        },
        {
          "internalType": "uint256",
          "name": "id",
          "type": "uint256"
        }
      ],
      "name": "balanceOf",
      "outputs": [
        {
          "internalType": "uint256",
          "name": "",
          "type": "uint256"
        }
      ],
      "stateMutability": "view",
      "type": "function"
    },
    {
      "inputs": [
        {
          "internalType": "address[]",
          "name": "accounts",
          "type": "address[]"
        },
        {
          "internalType": "uint256[]",
          "name": "ids",
          "type": "uint256[]"
        }
      ],
      "name": "balanceOfBatch",
      "outputs": [
        {
          "internalType": "uint256[]",
          "name": "",
          "type": "uint256[]"
        }
      ],
      "stateMutability": "view",
      "type": "function"
    },
    {
      "inputs": [
        {
          "internalType": "string",
          "name": "_projectName",
          "type": "string"
        },
        {
          "internalType": "string",
          "name": "_projectDescription",
          "type": "string"
        },
        {
          "internalType": "string[]",
          "name": "_tags",
          "type": "string[]"
        },
        {
          "internalType": "string",
          "name": "_uri",
          "type": "string"
        }
      ],
      "name": "createProject",
      "outputs": [],
      "stateMutability": "payable",
      "type": "function"
    },
    {
      "inputs": [],
      "name": "getAllProjects",
      "outputs": [
        {
          "components": [
            {
              "internalType": "address",
              "name": "registeredBy",
              "type": "address"
            },
            {
              "internalType": "string",
              "name": "projectName",
              "type": "string"
            },
            {
              "internalType": "string",
              "name": "projectDescription",
              "type": "string"
            },
            {
              "internalType": "string[]",
              "name": "tags",
              "type": "string[]"
            },
            {
              "internalType": "string",
              "name": "ipfsURI",
              "type": "string"
            }
          ],
          "internalType": "struct Structs.Project[]",
          "name": "",
          "type": "tuple[]"
        }
      ],
      "stateMutability": "view",
      "type": "function"
    },
    {
      "inputs": [
        {
          "internalType": "bytes32",
          "name": "_messageHash",
          "type": "bytes32"
        }
      ],
      "name": "getEthSignedMessageHash",
      "outputs": [
        {
          "internalType": "bytes32",
          "name": "",
          "type": "bytes32"
        }
      ],
      "stateMutability": "pure",
      "type": "function"
    },
    {
      "inputs": [
        {
          "internalType": "address",
          "name": "account",
          "type": "address"
        },
        {
          "internalType": "address",
          "name": "operator",
          "type": "address"
        }
      ],
      "name": "isApprovedForAll",
      "outputs": [
        {
          "internalType": "bool",
          "name": "",
          "type": "bool"
        }
      ],
      "stateMutability": "view",
      "type": "function"
    },
    {
      "inputs": [
        {
          "internalType": "address",
          "name": "",
          "type": "address"
        }
      ],
      "name": "isRegistered",
      "outputs": [
        {
          "internalType": "bool",
          "name": "",
          "type": "bool"
        }
      ],
      "stateMutability": "view",
      "type": "function"
    },
    {
      "inputs": [
        {
          "internalType": "bytes32",
          "name": "_messageHash",
          "type": "bytes32"
        },
        {
          "internalType": "bytes",
          "name": "_signature",
          "type": "bytes"
        }
      ],
      "name": "isVerified",
      "outputs": [
        {
          "internalType": "bool",
          "name": "",
          "type": "bool"
        }
      ],
      "stateMutability": "view",
      "type": "function"
    },
    {
      "inputs": [
        {
          "internalType": "uint256",
          "name": "projectId",
          "type": "uint256"
        }
      ],
      "name": "projects",
      "outputs": [
        {
          "internalType": "address",
          "name": "registeredBy",
          "type": "address"
        },
        {
          "internalType": "string",
          "name": "projectName",
          "type": "string"
        },
        {
          "internalType": "string",
          "name": "projectDescription",
          "type": "string"
        },
        {
          "internalType": "string",
          "name": "ipfsURI",
          "type": "string"
        }
      ],
      "stateMutability": "view",
      "type": "function"
    },
    {
      "inputs": [
        {
          "internalType": "bytes32",
          "name": "_ethSignedMessageHash",
          "type": "bytes32"
        },
        {
          "internalType": "bytes",
          "name": "_signature",
          "type": "bytes"
        }
      ],
      "name": "recoverSigner",
      "outputs": [
        {
          "internalType": "address",
          "name": "",
          "type": "address"
        }
      ],
      "stateMutability": "pure",
      "type": "function"
    },
    {
      "inputs": [
        {
          "internalType": "string",
          "name": "_name",
          "type": "string"
        },
        {
          "internalType": "string",
          "name": "_homeTown",
          "type": "string"
        },
        {
          "internalType": "bytes32",
          "name": "_msgHash",
          "type": "bytes32"
        },
        {
          "internalType": "bytes",
          "name": "_signature",
          "type": "bytes"
        }
      ],
      "name": "registerUser",
      "outputs": [],
      "stateMutability": "nonpayable",
      "type": "function"
    },
    {
      "inputs": [
        {
          "internalType": "address",
          "name": "from",
          "type": "address"
        },
        {
          "internalType": "address",
          "name": "to",
          "type": "address"
        },
        {
          "internalType": "uint256[]",
          "name": "ids",
          "type": "uint256[]"
        },
        {
          "internalType": "uint256[]",
          "name": "amounts",
          "type": "uint256[]"
        },
        {
          "internalType": "bytes",
          "name": "data",
          "type": "bytes"
        }
      ],
      "name": "safeBatchTransferFrom",
      "outputs": [],
      "stateMutability": "nonpayable",
      "type": "function"
    },
    {
      "inputs": [
        {
          "internalType": "address",
          "name": "from",
          "type": "address"
        },
        {
          "internalType": "address",
          "name": "to",
          "type": "address"
        },
        {
          "internalType": "uint256",
          "name": "id",
          "type": "uint256"
        },
        {
          "internalType": "uint256",
          "name": "amount",
          "type": "uint256"
        },
        {
          "internalType": "bytes",
          "name": "data",
          "type": "bytes"
        }
      ],
      "name": "safeTransferFrom",
      "outputs": [],
      "stateMutability": "nonpayable",
      "type": "function"
    },
    {
      "inputs": [
        {
          "internalType": "address",
          "name": "operator",
          "type": "address"
        },
        {
          "internalType": "bool",
          "name": "approved",
          "type": "bool"
        }
      ],
      "name": "setApprovalForAll",
      "outputs": [],
      "stateMutability": "nonpayable",
      "type": "function"
    },
    {
      "inputs": [
        {
          "internalType": "bytes",
          "name": "sig",
          "type": "bytes"
        }
      ],
      "name": "splitSignature",
      "outputs": [
        {
          "internalType": "uint8",
          "name": "",
          "type": "uint8"
        },
        {
          "internalType": "bytes32",
          "name": "",
          "type": "bytes32"
        },
        {
          "internalType": "bytes32",
          "name": "",
          "type": "bytes32"
        }
      ],
      "stateMutability": "pure",
      "type": "function"
    },
    {
      "inputs": [
        {
          "internalType": "bytes4",
          "name": "interfaceId",
          "type": "bytes4"
        }
      ],
      "name": "supportsInterface",
      "outputs": [
        {
          "internalType": "bool",
          "name": "",
          "type": "bool"
        }
      ],
      "stateMutability": "view",
      "type": "function"
    },
    {
      "inputs": [
        {
          "internalType": "uint256",
          "name": "",
          "type": "uint256"
        }
      ],
      "name": "tokenURIs",
      "outputs": [
        {
          "internalType": "string",
          "name": "",
          "type": "string"
        }
      ],
      "stateMutability": "view",
      "type": "function"
    },
    {
      "inputs": [
        {
          "internalType": "uint256",
          "name": "",
          "type": "uint256"
        }
      ],
      "name": "uri",
      "outputs": [
        {
          "internalType": "string",
          "name": "",
          "type": "string"
        }
      ],
      "stateMutability": "view",
      "type": "function"
    },
    {
      "inputs": [
        {
          "internalType": "address",
          "name": "",
          "type": "address"
        }
      ],
      "name": "users",
      "outputs": [
        {
          "internalType": "bool",
          "name": "isVerified",
          "type": "bool"
        },
        {
          "internalType": "string",
          "name": "name",
          "type": "string"
        },
        {
          "internalType": "string",
          "name": "hometown",
          "type": "string"
        }
      ],
      "stateMutability": "view",
      "type": "function"
    }
  ],
  "transactionHash": "0x323bf5abe942e995d84b86fdaaf4d0872bf6ccba3011bf7f81ca06644f77774f",
  "args": [],
  "numDeployments": 2,
  "solcInputHash": "fbb5200537c6fa647dd954407fec07dd",
  "bytecode": "0x608060405260006008553480156200001657600080fd5b5060408051808201909152600381526222a12360e91b60208201526200003c8162000055565b50600380546001600160a01b03191633179055620001d8565b60026200006382826200010c565b5050565b634e487b7160e01b600052604160045260246000fd5b600181811c908216806200009257607f821691505b602082108103620000b357634e487b7160e01b600052602260045260246000fd5b50919050565b601f8211156200010757600081815260208120601f850160051c81016020861015620000e25750805b601f850160051c820191505b818110156200010357828155600101620000ee565b5050505b505050565b81516001600160401b0381111562000128576200012862000067565b62000140816200013984546200007d565b84620000b9565b602080601f8311600181146200017857600084156200015f5750858301515b600019600386901b1c1916600185901b17855562000103565b600085815260208120601f198616915b82811015620001a95788860151825594840194600190910190840162000188565b5085821015620001c85787850151600019600388901b60f8161c191681555b5050505050600190811b01905550565b612a5080620001e86000396000f3fe60806040526004361061011e5760003560e01c806380d03829116100a0578063bf60db3b11610064578063bf60db3b1461038d578063c3c5a547146103ad578063e985e9c5146103dd578063f242432a14610426578063fa5408011461044657600080fd5b806380d03829146102a557806397aba7f9146102c7578063a22cb465146102ff578063a7bb58031461031f578063a87430ba1461035e57600080fd5b8063401eaf73116100e7578063401eaf7314610205578063414aea43146102255780634e1273f4146102385780636c8b703f146102655780637fcacc0e1461028557600080fd5b8062fdd58e1461012357806301ffc9a7146101565780630e89341c14610186578063107046bd146101b35780632eb2c2d6146101e3575b600080fd5b34801561012f57600080fd5b5061014361013e366004611d19565b610466565b6040519081526020015b60405180910390f35b34801561016257600080fd5b50610176610171366004611d59565b6104ff565b604051901515815260200161014d565b34801561019257600080fd5b506101a66101a1366004611d7d565b61054f565b60405161014d9190611ddc565b3480156101bf57600080fd5b506101d36101ce366004611d7d565b6105e3565b60405161014d9493929190611def565b3480156101ef57600080fd5b506102036101fe366004611f8d565b6107ae565b005b34801561021157600080fd5b50610203610220366004612036565b6107fa565b6102036102333660046120c7565b610929565b34801561024457600080fd5b506102586102533660046121d3565b610a9f565b60405161014d91906122d8565b34801561027157600080fd5b506101a6610280366004611d7d565b610bc8565b34801561029157600080fd5b506101766102a03660046122eb565b610c62565b3480156102b157600080fd5b506102ba610ce7565b60405161014d9190612327565b3480156102d357600080fd5b506102e76102e23660046122eb565b611080565b6040516001600160a01b03909116815260200161014d565b34801561030b57600080fd5b5061020361031a366004612442565b6110ff565b34801561032b57600080fd5b5061033f61033a36600461247e565b61110e565b6040805160ff909416845260208401929092529082015260600161014d565b34801561036a57600080fd5b5061037e6103793660046124ba565b611180565b60405161014d939291906124d5565b34801561039957600080fd5b506102036103a836600461250c565b6112b7565b3480156103b957600080fd5b506101766103c83660046124ba565b60066020526000908152604090205460ff1681565b3480156103e957600080fd5b506101766103f8366004612540565b6001600160a01b03918216600090815260016020908152604080832093909416825291909152205460ff1690565b34801561043257600080fd5b50610203610441366004612573565b61140c565b34801561045257600080fd5b50610143610461366004611d7d565b611451565b60006001600160a01b0383166104d65760405162461bcd60e51b815260206004820152602a60248201527f455243313135353a2061646472657373207a65726f206973206e6f742061207660448201526930b634b21037bbb732b960b11b60648201526084015b60405180910390fd5b506000818152602081815260408083206001600160a01b03861684529091529020545b92915050565b60006001600160e01b03198216636cdb3d1360e11b148061053057506001600160e01b031982166303a24d0760e21b145b806104f957506301ffc9a760e01b6001600160e01b03198316146104f9565b60606002805461055e906125d7565b80601f016020809104026020016040519081016040528092919081815260200182805461058a906125d7565b80156105d75780601f106105ac576101008083540402835291602001916105d7565b820191906000526020600020905b8154815290600101906020018083116105ba57829003601f168201915b50505050509050919050565b600760205260009081526040902080546001820180546001600160a01b03909216929161060f906125d7565b80601f016020809104026020016040519081016040528092919081815260200182805461063b906125d7565b80156106885780601f1061065d57610100808354040283529160200191610688565b820191906000526020600020905b81548152906001019060200180831161066b57829003601f168201915b50505050509080600201805461069d906125d7565b80601f01602080910402602001604051908101604052809291908181526020018280546106c9906125d7565b80156107165780601f106106eb57610100808354040283529160200191610716565b820191906000526020600020905b8154815290600101906020018083116106f957829003601f168201915b50505050509080600401805461072b906125d7565b80601f0160208091040260200160405190810160405280929190818152602001828054610757906125d7565b80156107a45780601f10610779576101008083540402835291602001916107a4565b820191906000526020600020905b81548152906001019060200180831161078757829003601f168201915b5050505050905084565b6001600160a01b0385163314806107ca57506107ca85336103f8565b6107e65760405162461bcd60e51b81526004016104cd9061260b565b6107f385858585856114a4565b5050505050565b3360009081526006602052604090205460ff161561085a5760405162461bcd60e51b815260206004820152601d60248201527f506c6179657220697320616c726561647920726567697374657265642e00000060448201526064016104cd565b6108648282610c62565b6108a55760405162461bcd60e51b8152602060048201526012602482015271496e76616c69642054786e20536f7572636560701b60448201526064016104cd565b604080516060810182526001808252602080830188815283850188905233600090815260059092529390208251815460ff19169015151781559251919291908201906108f190826126a4565b506040820151600282019061090690826126a4565b5050336000908152600660205260409020805460ff191660011790555050505050565b3360009081526006602052604090205460ff166109985760405162461bcd60e51b815260206004820152602760248201527f4f6e6c7920726567697374657265642075736572732063616e206372656174206044820152661c1c9bda9958dd60ca1b60648201526084016104cd565b6040805160a0810182523381526020808201878152828401879052606083018690526080830185905260085460009081526007909252929020815181546001600160a01b0319166001600160a01b0390911617815591519091906001820190610a0190826126a4565b5060408201516002820190610a1690826126a4565b5060608201518051610a32916003840191602090910190611c00565b5060808201516004820190610a4790826126a4565b50905050610a6a336008546103e860405180602001604052806000815250611681565b6008546000908152600460205260409020610a8582826126a4565b50600860008154610a9590612779565b9091555050505050565b60608151835114610b045760405162461bcd60e51b815260206004820152602960248201527f455243313135353a206163636f756e747320616e6420696473206c656e677468604482015268040dad2e6dac2e8c6d60bb1b60648201526084016104cd565b600083516001600160401b03811115610b1f57610b1f611e44565b604051908082528060200260200182016040528015610b48578160200160208202803683370190505b50905060005b8451811015610bc057610b93858281518110610b6c57610b6c612792565b6020026020010151858381518110610b8657610b86612792565b6020026020010151610466565b828281518110610ba557610ba5612792565b6020908102919091010152610bb981612779565b9050610b4e565b509392505050565b60046020526000908152604090208054610be1906125d7565b80601f0160208091040260200160405190810160405280929190818152602001828054610c0d906125d7565b8015610c5a5780601f10610c2f57610100808354040283529160200191610c5a565b820191906000526020600020905b815481529060010190602001808311610c3d57829003601f168201915b505050505081565b600080610c6e84611451565b90506000610c7c8285611080565b6003549091506001600160a01b03808316911614610cdc5760405162461bcd60e51b815260206004820152601a60248201527f556e617574686f72697a656420436f6e74726163742063616c6c00000000000060448201526064016104cd565b506001949350505050565b6060600854600003610d2a576040805160008082526020820190925290610d24565b610d11611c56565b815260200190600190039081610d095790505b50905090565b60006008546001600160401b03811115610d4657610d46611e44565b604051908082528060200260200182016040528015610d7f57816020015b610d6c611c56565b815260200190600190039081610d645790505b50905060005b60085481101561107a57600081815260076020908152604091829020825160a0810190935280546001600160a01b031683526001810180549192840191610dcb906125d7565b80601f0160208091040260200160405190810160405280929190818152602001828054610df7906125d7565b8015610e445780601f10610e1957610100808354040283529160200191610e44565b820191906000526020600020905b815481529060010190602001808311610e2757829003601f168201915b50505050508152602001600282018054610e5d906125d7565b80601f0160208091040260200160405190810160405280929190818152602001828054610e89906125d7565b8015610ed65780601f10610eab57610100808354040283529160200191610ed6565b820191906000526020600020905b815481529060010190602001808311610eb957829003601f168201915b5050505050815260200160038201805480602002602001604051908101604052809291908181526020016000905b82821015610fb0578382906000526020600020018054610f23906125d7565b80601f0160208091040260200160405190810160405280929190818152602001828054610f4f906125d7565b8015610f9c5780601f10610f7157610100808354040283529160200191610f9c565b820191906000526020600020905b815481529060010190602001808311610f7f57829003601f168201915b505050505081526020019060010190610f04565b505050508152602001600482018054610fc8906125d7565b80601f0160208091040260200160405190810160405280929190818152602001828054610ff4906125d7565b80156110415780601f1061101657610100808354040283529160200191611041565b820191906000526020600020905b81548152906001019060200180831161102457829003601f168201915b50505050508152505082828151811061105c5761105c612792565b6020026020010181905250808061107290612779565b915050610d85565b50919050565b60008060008061108f8561110e565b6040805160008152602081018083528b905260ff8516918101919091526060810183905260808101829052929550909350915060019060a0016020604051602081039080840390855afa1580156110ea573d6000803e3d6000fd5b5050604051601f190151979650505050505050565b61110a338383611795565b5050565b600080600083516041146111645760405162461bcd60e51b815260206004820152601860248201527f696e76616c6964207369676e6174757265206c656e677468000000000000000060448201526064016104cd565b5050506020810151604082015160609092015160001a92909190565b6005602052600090815260409020805460018201805460ff90921692916111a6906125d7565b80601f01602080910402602001604051908101604052809291908181526020018280546111d2906125d7565b801561121f5780601f106111f45761010080835404028352916020019161121f565b820191906000526020600020905b81548152906001019060200180831161120257829003601f168201915b505050505090806002018054611234906125d7565b80601f0160208091040260200160405190810160405280929190818152602001828054611260906125d7565b80156112ad5780601f10611282576101008083540402835291602001916112ad565b820191906000526020600020905b81548152906001019060200180831161129057829003601f168201915b5050505050905083565b3360009081526006602052604090205460ff166113215760405162461bcd60e51b815260206004820152602260248201527f4f6e6c7920726567697374657265642075736572732063616e20616464207461604482015261677360f01b60648201526084016104cd565b61132b8282610c62565b61136c5760405162461bcd60e51b8152602060048201526012602482015271496e76616c69642054786e20536f7572636560701b60448201526064016104cd565b600084815260076020526040902060030154600610156113e15760405162461bcd60e51b815260206004820152602a60248201527f4d6178696d756d206f66203620746167732061726520616c6c6f7765642070656044820152693910383937b532b1ba1760b11b60648201526084016104cd565b6000848152600760209081526040822060030180546001810182559083529120016107f384826126a4565b6001600160a01b038516331480611428575061142885336103f8565b6114445760405162461bcd60e51b81526004016104cd9061260b565b6107f38585858585611875565b6040517f19457468657265756d205369676e6564204d6573736167653a0a3332000000006020820152603c8101829052600090605c01604051602081830303815290604052805190602001209050919050565b81518351146115065760405162461bcd60e51b815260206004820152602860248201527f455243313135353a2069647320616e6420616d6f756e7473206c656e677468206044820152670dad2e6dac2e8c6d60c31b60648201526084016104cd565b6001600160a01b03841661152c5760405162461bcd60e51b81526004016104cd906127a8565b3360005b845181101561161357600085828151811061154d5761154d612792565b60200260200101519050600085838151811061156b5761156b612792565b602090810291909101810151600084815280835260408082206001600160a01b038e1683529093529190912054909150818110156115bb5760405162461bcd60e51b81526004016104cd906127ed565b6000838152602081815260408083206001600160a01b038e8116855292528083208585039055908b168252812080548492906115f8908490612837565b925050819055505050508061160c90612779565b9050611530565b50846001600160a01b0316866001600160a01b0316826001600160a01b03167f4a39dc06d4c0dbc64b70af90fd698a233a518aa5d07e595d983b8c0526c8f7fb878760405161166392919061284a565b60405180910390a461167981878787878761199f565b505050505050565b6001600160a01b0384166116e15760405162461bcd60e51b815260206004820152602160248201527f455243313135353a206d696e7420746f20746865207a65726f206164647265736044820152607360f81b60648201526084016104cd565b3360006116ed85611afa565b905060006116fa85611afa565b90506000868152602081815260408083206001600160a01b038b1684529091528120805487929061172c908490612837565b909155505060408051878152602081018790526001600160a01b03808a1692600092918716917fc3d58168c5ae7397731d063d5bbf3d657854427343f4c083240f7aacaa2d0f62910160405180910390a461178c83600089898989611b45565b50505050505050565b816001600160a01b0316836001600160a01b0316036118085760405162461bcd60e51b815260206004820152602960248201527f455243313135353a2073657474696e6720617070726f76616c20737461747573604482015268103337b91039b2b63360b91b60648201526084016104cd565b6001600160a01b03838116600081815260016020908152604080832094871680845294825291829020805460ff191686151590811790915591519182527f17307eab39ab6107e8899845ad3d59bd9653f200f220920489ca2b5937696c31910160405180910390a3505050565b6001600160a01b03841661189b5760405162461bcd60e51b81526004016104cd906127a8565b3360006118a785611afa565b905060006118b485611afa565b90506000868152602081815260408083206001600160a01b038c168452909152902054858110156118f75760405162461bcd60e51b81526004016104cd906127ed565b6000878152602081815260408083206001600160a01b038d8116855292528083208985039055908a16825281208054889290611934908490612837565b909155505060408051888152602081018890526001600160a01b03808b16928c821692918816917fc3d58168c5ae7397731d063d5bbf3d657854427343f4c083240f7aacaa2d0f62910160405180910390a4611994848a8a8a8a8a611b45565b505050505050505050565b6001600160a01b0384163b156116795760405163bc197c8160e01b81526001600160a01b0385169063bc197c81906119e39089908990889088908890600401612878565b6020604051808303816000875af1925050508015611a1e575060408051601f3d908101601f19168201909252611a1b918101906128d6565b60015b611aca57611a2a6128f3565b806308c379a003611a635750611a3e61290f565b80611a495750611a65565b8060405162461bcd60e51b81526004016104cd9190611ddc565b505b60405162461bcd60e51b815260206004820152603460248201527f455243313135353a207472616e7366657220746f206e6f6e2d455243313135356044820152732932b1b2b4bb32b91034b6b83632b6b2b73a32b960611b60648201526084016104cd565b6001600160e01b0319811663bc197c8160e01b1461178c5760405162461bcd60e51b81526004016104cd90612998565b60408051600180825281830190925260609160009190602080830190803683370190505090508281600081518110611b3457611b34612792565b602090810291909101015292915050565b6001600160a01b0384163b156116795760405163f23a6e6160e01b81526001600160a01b0385169063f23a6e6190611b8990899089908890889088906004016129e0565b6020604051808303816000875af1925050508015611bc4575060408051601f3d908101601f19168201909252611bc1918101906128d6565b60015b611bd057611a2a6128f3565b6001600160e01b0319811663f23a6e6160e01b1461178c5760405162461bcd60e51b81526004016104cd90612998565b828054828255906000526020600020908101928215611c46579160200282015b82811115611c465782518290611c3690826126a4565b5091602001919060010190611c20565b50611c52929150611c8e565b5090565b6040518060a0016040528060006001600160a01b03168152602001606081526020016060815260200160608152602001606081525090565b80821115611c52576000611ca28282611cab565b50600101611c8e565b508054611cb7906125d7565b6000825580601f10611cc7575050565b601f016020900490600052602060002090810190611ce59190611ce8565b50565b5b80821115611c525760008155600101611ce9565b80356001600160a01b0381168114611d1457600080fd5b919050565b60008060408385031215611d2c57600080fd5b611d3583611cfd565b946020939093013593505050565b6001600160e01b031981168114611ce557600080fd5b600060208284031215611d6b57600080fd5b8135611d7681611d43565b9392505050565b600060208284031215611d8f57600080fd5b5035919050565b6000815180845260005b81811015611dbc57602081850181015186830182015201611da0565b506000602082860101526020601f19601f83011685010191505092915050565b602081526000611d766020830184611d96565b6001600160a01b0385168152608060208201819052600090611e1390830186611d96565b8281036040840152611e258186611d96565b90508281036060840152611e398185611d96565b979650505050505050565b634e487b7160e01b600052604160045260246000fd5b601f8201601f191681016001600160401b0381118282101715611e7f57611e7f611e44565b6040525050565b60006001600160401b03821115611e9f57611e9f611e44565b5060051b60200190565b600082601f830112611eba57600080fd5b81356020611ec782611e86565b604051611ed48282611e5a565b83815260059390931b8501820192828101915086841115611ef457600080fd5b8286015b84811015611f0f5780358352918301918301611ef8565b509695505050505050565b600082601f830112611f2b57600080fd5b81356001600160401b03811115611f4457611f44611e44565b604051611f5b601f8301601f191660200182611e5a565b818152846020838601011115611f7057600080fd5b816020850160208301376000918101602001919091529392505050565b600080600080600060a08688031215611fa557600080fd5b611fae86611cfd565b9450611fbc60208701611cfd565b935060408601356001600160401b0380821115611fd857600080fd5b611fe489838a01611ea9565b94506060880135915080821115611ffa57600080fd5b61200689838a01611ea9565b9350608088013591508082111561201c57600080fd5b5061202988828901611f1a565b9150509295509295909350565b6000806000806080858703121561204c57600080fd5b84356001600160401b038082111561206357600080fd5b61206f88838901611f1a565b9550602087013591508082111561208557600080fd5b61209188838901611f1a565b94506040870135935060608701359150808211156120ae57600080fd5b506120bb87828801611f1a565b91505092959194509250565b600080600080608085870312156120dd57600080fd5b84356001600160401b03808211156120f457600080fd5b61210088838901611f1a565b955060209150818701358181111561211757600080fd5b61212389828a01611f1a565b95505060408701358181111561213857600080fd5b8701601f8101891361214957600080fd5b803561215481611e86565b6040516121618282611e5a565b82815260059290921b830185019185810191508b83111561218157600080fd5b8584015b838110156121b95780358681111561219d5760008081fd5b6121ab8e8983890101611f1a565b845250918601918601612185565b50965050505060608701359150808211156120ae57600080fd5b600080604083850312156121e657600080fd5b82356001600160401b03808211156121fd57600080fd5b818501915085601f83011261221157600080fd5b8135602061221e82611e86565b60405161222b8282611e5a565b83815260059390931b850182019282810191508984111561224b57600080fd5b948201945b838610156122705761226186611cfd565b82529482019490820190612250565b9650508601359250508082111561228657600080fd5b5061229385828601611ea9565b9150509250929050565b600081518084526020808501945080840160005b838110156122cd578151875295820195908201906001016122b1565b509495945050505050565b602081526000611d76602083018461229d565b600080604083850312156122fe57600080fd5b8235915060208301356001600160401b0381111561231b57600080fd5b61229385828601611f1a565b602080825282518282018190526000919060409081850190600581811b8701840188860187805b85811015612432578a8403603f19018752825180516001600160a01b031685528981015160a08b87018190529061238782880182611d96565b915050898201518682038b88015261239f8282611d96565b606084810151898303918a019190915280518083529193508d840192508d0190808a1b84018e01875b828110156123fb57601f198683030185526123e4828551611d96565b91508f840193508f850194506001810190506123c8565b506080958601518a82038b8801529594506124168187611d96565b9c8f019c99505050958c0195505050600191909101905061234e565b50919a9950505050505050505050565b6000806040838503121561245557600080fd5b61245e83611cfd565b91506020830135801515811461247357600080fd5b809150509250929050565b60006020828403121561249057600080fd5b81356001600160401b038111156124a657600080fd5b6124b284828501611f1a565b949350505050565b6000602082840312156124cc57600080fd5b611d7682611cfd565b83151581526060602082015260006124f06060830185611d96565b82810360408401526125028185611d96565b9695505050505050565b6000806000806080858703121561252257600080fd5b8435935060208501356001600160401b038082111561208557600080fd5b6000806040838503121561255357600080fd5b61255c83611cfd565b915061256a60208401611cfd565b90509250929050565b600080600080600060a0868803121561258b57600080fd5b61259486611cfd565b94506125a260208701611cfd565b9350604086013592506060860135915060808601356001600160401b038111156125cb57600080fd5b61202988828901611f1a565b600181811c908216806125eb57607f821691505b60208210810361107a57634e487b7160e01b600052602260045260246000fd5b6020808252602e908201527f455243313135353a2063616c6c6572206973206e6f7420746f6b656e206f776e60408201526d195c881bdc88185c1c1c9bdd995960921b606082015260800190565b601f82111561269f57600081815260208120601f850160051c810160208610156126805750805b601f850160051c820191505b818110156116795782815560010161268c565b505050565b81516001600160401b038111156126bd576126bd611e44565b6126d1816126cb84546125d7565b84612659565b602080601f83116001811461270657600084156126ee5750858301515b600019600386901b1c1916600185901b178555611679565b600085815260208120601f198616915b8281101561273557888601518255948401946001909101908401612716565b50858210156127535787850151600019600388901b60f8161c191681555b5050505050600190811b01905550565b634e487b7160e01b600052601160045260246000fd5b60006001820161278b5761278b612763565b5060010190565b634e487b7160e01b600052603260045260246000fd5b60208082526025908201527f455243313135353a207472616e7366657220746f20746865207a65726f206164604082015264647265737360d81b606082015260800190565b6020808252602a908201527f455243313135353a20696e73756666696369656e742062616c616e636520666f60408201526939103a3930b739b332b960b11b606082015260800190565b808201808211156104f9576104f9612763565b60408152600061285d604083018561229d565b828103602084015261286f818561229d565b95945050505050565b6001600160a01b0386811682528516602082015260a0604082018190526000906128a49083018661229d565b82810360608401526128b6818661229d565b905082810360808401526128ca8185611d96565b98975050505050505050565b6000602082840312156128e857600080fd5b8151611d7681611d43565b600060033d111561290c5760046000803e5060005160e01c5b90565b600060443d101561291d5790565b6040516003193d81016004833e81513d6001600160401b03816024840111818411171561294c57505050505090565b82850191508151818111156129645750505050505090565b843d870101602082850101111561297e5750505050505090565b61298d60208286010187611e5a565b509095945050505050565b60208082526028908201527f455243313135353a204552433131353552656365697665722072656a656374656040820152676420746f6b656e7360c01b606082015260800190565b6001600160a01b03868116825285166020820152604081018490526060810183905260a060808201819052600090611e3990830184611d9656fea2646970667358221220a9c0891a82284244a79fdeb25864eaccd40f0001b1ecc16804757e6f1b3adf5764736f6c63430008140033",
  "devdoc": {
    "events": {
      "ApprovalForAll(address,address,bool)": {
        "details": "Emitted when `account` grants or revokes permission to `operator` to transfer their tokens, according to `approved`."
      },
      "TransferBatch(address,address,address,uint256[],uint256[])": {
        "details": "Equivalent to multiple {TransferSingle} events, where `operator`, `from` and `to` are the same for all transfers."
      },
      "TransferSingle(address,address,address,uint256,uint256)": {
        "details": "Emitted when `value` tokens of token type `id` are transferred from `from` to `to` by `operator`."
      },
      "URI(string,uint256)": {
        "details": "Emitted when the URI for token type `id` changes to `value`, if it is a non-programmatic URI. If an {URI} event was emitted for `id`, the standard https://eips.ethereum.org/EIPS/eip-1155#metadata-extensions[guarantees] that `value` will equal the value returned by {IERC1155MetadataURI-uri}."
      }
    },
    "kind": "dev",
    "methods": {
      "balanceOf(address,uint256)": {
        "details": "See {IERC1155-balanceOf}. Requirements: - `account` cannot be the zero address."
      },
      "balanceOfBatch(address[],uint256[])": {
        "details": "See {IERC1155-balanceOfBatch}. Requirements: - `accounts` and `ids` must have the same length."
      },
      "isApprovedForAll(address,address)": {
        "details": "See {IERC1155-isApprovedForAll}."
      },
      "safeBatchTransferFrom(address,address,uint256[],uint256[],bytes)": {
        "details": "See {IERC1155-safeBatchTransferFrom}."
      },
      "safeTransferFrom(address,address,uint256,uint256,bytes)": {
        "details": "See {IERC1155-safeTransferFrom}."
      },
      "setApprovalForAll(address,bool)": {
        "details": "See {IERC1155-setApprovalForAll}."
      },
      "supportsInterface(bytes4)": {
        "details": "See {IERC165-supportsInterface}."
      },
      "uri(uint256)": {
        "details": "See {IERC1155MetadataURI-uri}. This implementation returns the same URI for *all* token types. It relies on the token type ID substitution mechanism https://eips.ethereum.org/EIPS/eip-1155#metadata[defined in the EIP]. Clients calling this function must replace the `\\{id\\}` substring with the actual token type ID."
      }
    },
    "version": 1
  },
  "userdoc": {
    "kind": "user",
    "methods": {},
    "version": 1
  },
  "storageLayout": {
    "storage": [
      {
        "astId": 25,
        "contract": "contracts/EBF.sol:EBF",
        "label": "_balances",
        "offset": 0,
        "slot": "0",
        "type": "t_mapping(t_uint256,t_mapping(t_address,t_uint256))"
      },
      {
        "astId": 31,
        "contract": "contracts/EBF.sol:EBF",
        "label": "_operatorApprovals",
        "offset": 0,
        "slot": "1",
        "type": "t_mapping(t_address,t_mapping(t_address,t_bool))"
      },
      {
        "astId": 33,
        "contract": "contracts/EBF.sol:EBF",
        "label": "_uri",
        "offset": 0,
        "slot": "2",
        "type": "t_string_storage"
      },
      {
        "astId": 2130,
        "contract": "contracts/EBF.sol:EBF",
        "label": "deployer",
        "offset": 0,
        "slot": "3",
        "type": "t_address"
      },
      {
        "astId": 2134,
        "contract": "contracts/EBF.sol:EBF",
        "label": "tokenURIs",
        "offset": 0,
        "slot": "4",
        "type": "t_mapping(t_uint256,t_string_storage)"
      },
      {
        "astId": 2139,
        "contract": "contracts/EBF.sol:EBF",
        "label": "users",
        "offset": 0,
        "slot": "5",
        "type": "t_mapping(t_address,t_struct(User)2158_storage)"
      },
      {
        "astId": 2143,
        "contract": "contracts/EBF.sol:EBF",
        "label": "isRegistered",
        "offset": 0,
        "slot": "6",
        "type": "t_mapping(t_address,t_bool)"
      },
      {
        "astId": 2148,
        "contract": "contracts/EBF.sol:EBF",
        "label": "projects",
        "offset": 0,
        "slot": "7",
        "type": "t_mapping(t_uint256,t_struct(Project)2170_storage)"
      },
      {
        "astId": 1800,
        "contract": "contracts/EBF.sol:EBF",
        "label": "projectCounter",
        "offset": 0,
        "slot": "8",
        "type": "t_uint256"
      }
    ],
    "types": {
      "t_address": {
        "encoding": "inplace",
        "label": "address",
        "numberOfBytes": "20"
      },
      "t_array(t_string_storage)dyn_storage": {
        "base": "t_string_storage",
        "encoding": "dynamic_array",
        "label": "string[]",
        "numberOfBytes": "32"
      },
      "t_bool": {
        "encoding": "inplace",
        "label": "bool",
        "numberOfBytes": "1"
      },
      "t_mapping(t_address,t_bool)": {
        "encoding": "mapping",
        "key": "t_address",
        "label": "mapping(address => bool)",
        "numberOfBytes": "32",
        "value": "t_bool"
      },
      "t_mapping(t_address,t_mapping(t_address,t_bool))": {
        "encoding": "mapping",
        "key": "t_address",
        "label": "mapping(address => mapping(address => bool))",
        "numberOfBytes": "32",
        "value": "t_mapping(t_address,t_bool)"
      },
      "t_mapping(t_address,t_struct(User)2158_storage)": {
        "encoding": "mapping",
        "key": "t_address",
        "label": "mapping(address => struct Structs.User)",
        "numberOfBytes": "32",
        "value": "t_struct(User)2158_storage"
      },
      "t_mapping(t_address,t_uint256)": {
        "encoding": "mapping",
        "key": "t_address",
        "label": "mapping(address => uint256)",
        "numberOfBytes": "32",
        "value": "t_uint256"
      },
      "t_mapping(t_uint256,t_mapping(t_address,t_uint256))": {
        "encoding": "mapping",
        "key": "t_uint256",
        "label": "mapping(uint256 => mapping(address => uint256))",
        "numberOfBytes": "32",
        "value": "t_mapping(t_address,t_uint256)"
      },
      "t_mapping(t_uint256,t_string_storage)": {
        "encoding": "mapping",
        "key": "t_uint256",
        "label": "mapping(uint256 => string)",
        "numberOfBytes": "32",
        "value": "t_string_storage"
      },
      "t_mapping(t_uint256,t_struct(Project)2170_storage)": {
        "encoding": "mapping",
        "key": "t_uint256",
        "label": "mapping(uint256 => struct Structs.Project)",
        "numberOfBytes": "32",
        "value": "t_struct(Project)2170_storage"
      },
      "t_string_storage": {
        "encoding": "bytes",
        "label": "string",
        "numberOfBytes": "32"
      },
      "t_struct(Project)2170_storage": {
        "encoding": "inplace",
        "label": "struct Structs.Project",
        "members": [
          {
            "astId": 2160,
            "contract": "contracts/EBF.sol:EBF",
            "label": "registeredBy",
            "offset": 0,
            "slot": "0",
            "type": "t_address"
          },
          {
            "astId": 2162,
            "contract": "contracts/EBF.sol:EBF",
            "label": "projectName",
            "offset": 0,
            "slot": "1",
            "type": "t_string_storage"
          },
          {
            "astId": 2164,
            "contract": "contracts/EBF.sol:EBF",
            "label": "projectDescription",
            "offset": 0,
            "slot": "2",
            "type": "t_string_storage"
          },
          {
            "astId": 2167,
            "contract": "contracts/EBF.sol:EBF",
            "label": "tags",
            "offset": 0,
            "slot": "3",
            "type": "t_array(t_string_storage)dyn_storage"
          },
          {
            "astId": 2169,
            "contract": "contracts/EBF.sol:EBF",
            "label": "ipfsURI",
            "offset": 0,
            "slot": "4",
            "type": "t_string_storage"
          }
        ],
        "numberOfBytes": "160"
      },
      "t_struct(User)2158_storage": {
        "encoding": "inplace",
        "label": "struct Structs.User",
        "members": [
          {
            "astId": 2153,
            "contract": "contracts/EBF.sol:EBF",
            "label": "isVerified",
            "offset": 0,
            "slot": "0",
            "type": "t_bool"
          },
          {
            "astId": 2155,
            "contract": "contracts/EBF.sol:EBF",
            "label": "name",
            "offset": 0,
            "slot": "1",
            "type": "t_string_storage"
          },
          {
            "astId": 2157,
            "contract": "contracts/EBF.sol:EBF",
            "label": "hometown",
            "offset": 0,
            "slot": "2",
            "type": "t_string_storage"
          }
        ],
        "numberOfBytes": "96"
      },
      "t_uint256": {
        "encoding": "inplace",
        "label": "uint256",
        "numberOfBytes": "32"
      }
    }
  }
}