{
  "address": "0xaCC29f908Dd44C9df734c8a8125DbDcc1b375CA1",
  "abi": [
    {
      "inputs": [],
      "stateMutability": "nonpayable",
      "type": "constructor"
    },
    {
      "anonymous": false,
      "inputs": [
        {
          "indexed": true,
          "internalType": "address",
          "name": "account",
          "type": "address"
        },
        {
          "indexed": true,
          "internalType": "address",
          "name": "operator",
          "type": "address"
        },
        {
          "indexed": false,
          "internalType": "bool",
          "name": "approved",
          "type": "bool"
        }
      ],
      "name": "ApprovalForAll",
      "type": "event"
    },
    {
      "anonymous": false,
      "inputs": [
        {
          "indexed": true,
          "internalType": "address",
          "name": "operator",
          "type": "address"
        },
        {
          "indexed": true,
          "internalType": "address",
          "name": "from",
          "type": "address"
        },
        {
          "indexed": true,
          "internalType": "address",
          "name": "to",
          "type": "address"
        },
        {
          "indexed": false,
          "internalType": "uint256[]",
          "name": "ids",
          "type": "uint256[]"
        },
        {
          "indexed": false,
          "internalType": "uint256[]",
          "name": "values",
          "type": "uint256[]"
        }
      ],
      "name": "TransferBatch",
      "type": "event"
    },
    {
      "anonymous": false,
      "inputs": [
        {
          "indexed": true,
          "internalType": "address",
          "name": "operator",
          "type": "address"
        },
        {
          "indexed": true,
          "internalType": "address",
          "name": "from",
          "type": "address"
        },
        {
          "indexed": true,
          "internalType": "address",
          "name": "to",
          "type": "address"
        },
        {
          "indexed": false,
          "internalType": "uint256",
          "name": "id",
          "type": "uint256"
        },
        {
          "indexed": false,
          "internalType": "uint256",
          "name": "value",
          "type": "uint256"
        }
      ],
      "name": "TransferSingle",
      "type": "event"
    },
    {
      "anonymous": false,
      "inputs": [
        {
          "indexed": false,
          "internalType": "string",
          "name": "value",
          "type": "string"
        },
        {
          "indexed": true,
          "internalType": "uint256",
          "name": "id",
          "type": "uint256"
        }
      ],
      "name": "URI",
      "type": "event"
    },
    {
      "inputs": [
        {
          "internalType": "uint256",
          "name": "_projectId",
          "type": "uint256"
        },
        {
          "internalType": "string",
          "name": "_tag",
          "type": "string"
        },
        {
          "internalType": "bytes32",
          "name": "_msgHash",
          "type": "bytes32"
        },
        {
          "internalType": "bytes",
          "name": "_signature",
          "type": "bytes"
        }
      ],
      "name": "addTagstoProject",
      "outputs": [],
      "stateMutability": "nonpayable",
      "type": "function"
    },
    {
      "inputs": [
        {
          "internalType": "address",
          "name": "account",
          "type": "address"
        },
        {
          "internalType": "uint256",
          "name": "id",
          "type": "uint256"
        }
      ],
      "name": "balanceOf",
      "outputs": [
        {
          "internalType": "uint256",
          "name": "",
          "type": "uint256"
        }
      ],
      "stateMutability": "view",
      "type": "function"
    },
    {
      "inputs": [
        {
          "internalType": "address[]",
          "name": "accounts",
          "type": "address[]"
        },
        {
          "internalType": "uint256[]",
          "name": "ids",
          "type": "uint256[]"
        }
      ],
      "name": "balanceOfBatch",
      "outputs": [
        {
          "internalType": "uint256[]",
          "name": "",
          "type": "uint256[]"
        }
      ],
      "stateMutability": "view",
      "type": "function"
    },
    {
      "inputs": [
        {
          "internalType": "string",
          "name": "_projectName",
          "type": "string"
        },
        {
          "internalType": "string",
          "name": "_projectDescription",
          "type": "string"
        },
        {
          "internalType": "string[]",
          "name": "_tags",
          "type": "string[]"
        },
        {
          "internalType": "string",
          "name": "_uri",
          "type": "string"
        }
      ],
      "name": "createProject",
      "outputs": [],
      "stateMutability": "payable",
      "type": "function"
    },
    {
      "inputs": [],
      "name": "getAllProjects",
      "outputs": [
        {
          "components": [
            {
              "internalType": "uint256",
              "name": "id",
              "type": "uint256"
            },
            {
              "internalType": "address",
              "name": "registeredBy",
              "type": "address"
            },
            {
              "internalType": "string",
              "name": "projectName",
              "type": "string"
            },
            {
              "internalType": "string",
              "name": "projectDescription",
              "type": "string"
            },
            {
              "internalType": "string[]",
              "name": "tags",
              "type": "string[]"
            },
            {
              "internalType": "string",
              "name": "ipfsURI",
              "type": "string"
            }
          ],
          "internalType": "struct Structs.Project[]",
          "name": "",
          "type": "tuple[]"
        }
      ],
      "stateMutability": "view",
      "type": "function"
    },
    {
      "inputs": [
        {
          "internalType": "bytes32",
          "name": "_messageHash",
          "type": "bytes32"
        }
      ],
      "name": "getEthSignedMessageHash",
      "outputs": [
        {
          "internalType": "bytes32",
          "name": "",
          "type": "bytes32"
        }
      ],
      "stateMutability": "pure",
      "type": "function"
    },
    {
      "inputs": [
        {
          "internalType": "uint256",
          "name": "projectId",
          "type": "uint256"
        }
      ],
      "name": "getProjectById",
      "outputs": [
        {
          "components": [
            {
              "internalType": "uint256",
              "name": "id",
              "type": "uint256"
            },
            {
              "internalType": "address",
              "name": "registeredBy",
              "type": "address"
            },
            {
              "internalType": "string",
              "name": "projectName",
              "type": "string"
            },
            {
              "internalType": "string",
              "name": "projectDescription",
              "type": "string"
            },
            {
              "internalType": "string[]",
              "name": "tags",
              "type": "string[]"
            },
            {
              "internalType": "string",
              "name": "ipfsURI",
              "type": "string"
            }
          ],
          "internalType": "struct Structs.Project",
          "name": "",
          "type": "tuple"
        },
        {
          "internalType": "string[]",
          "name": "",
          "type": "string[]"
        }
      ],
      "stateMutability": "view",
      "type": "function"
    },
    {
      "inputs": [
        {
          "internalType": "address",
          "name": "user",
          "type": "address"
        }
      ],
      "name": "getProjectsByUser",
      "outputs": [
        {
          "components": [
            {
              "internalType": "uint256",
              "name": "id",
              "type": "uint256"
            },
            {
              "internalType": "address",
              "name": "registeredBy",
              "type": "address"
            },
            {
              "internalType": "string",
              "name": "projectName",
              "type": "string"
            },
            {
              "internalType": "string",
              "name": "projectDescription",
              "type": "string"
            },
            {
              "internalType": "string[]",
              "name": "tags",
              "type": "string[]"
            },
            {
              "internalType": "string",
              "name": "ipfsURI",
              "type": "string"
            }
          ],
          "internalType": "struct Structs.Project[]",
          "name": "",
          "type": "tuple[]"
        }
      ],
      "stateMutability": "view",
      "type": "function"
    },
    {
      "inputs": [
        {
          "internalType": "address",
          "name": "account",
          "type": "address"
        },
        {
          "internalType": "address",
          "name": "operator",
          "type": "address"
        }
      ],
      "name": "isApprovedForAll",
      "outputs": [
        {
          "internalType": "bool",
          "name": "",
          "type": "bool"
        }
      ],
      "stateMutability": "view",
      "type": "function"
    },
    {
      "inputs": [
        {
          "internalType": "address",
          "name": "",
          "type": "address"
        }
      ],
      "name": "isRegistered",
      "outputs": [
        {
          "internalType": "bool",
          "name": "",
          "type": "bool"
        }
      ],
      "stateMutability": "view",
      "type": "function"
    },
    {
      "inputs": [
        {
          "internalType": "bytes32",
          "name": "_messageHash",
          "type": "bytes32"
        },
        {
          "internalType": "bytes",
          "name": "_signature",
          "type": "bytes"
        }
      ],
      "name": "isVerified",
      "outputs": [
        {
          "internalType": "bool",
          "name": "",
          "type": "bool"
        }
      ],
      "stateMutability": "view",
      "type": "function"
    },
    {
      "inputs": [
        {
          "internalType": "uint256",
          "name": "projectId",
          "type": "uint256"
        }
      ],
      "name": "projects",
      "outputs": [
        {
          "internalType": "uint256",
          "name": "id",
          "type": "uint256"
        },
        {
          "internalType": "address",
          "name": "registeredBy",
          "type": "address"
        },
        {
          "internalType": "string",
          "name": "projectName",
          "type": "string"
        },
        {
          "internalType": "string",
          "name": "projectDescription",
          "type": "string"
        },
        {
          "internalType": "string",
          "name": "ipfsURI",
          "type": "string"
        }
      ],
      "stateMutability": "view",
      "type": "function"
    },
    {
      "inputs": [
        {
          "internalType": "bytes32",
          "name": "_ethSignedMessageHash",
          "type": "bytes32"
        },
        {
          "internalType": "bytes",
          "name": "_signature",
          "type": "bytes"
        }
      ],
      "name": "recoverSigner",
      "outputs": [
        {
          "internalType": "address",
          "name": "",
          "type": "address"
        }
      ],
      "stateMutability": "pure",
      "type": "function"
    },
    {
      "inputs": [
        {
          "internalType": "string",
          "name": "_name",
          "type": "string"
        },
        {
          "internalType": "string",
          "name": "_homeTown",
          "type": "string"
        },
        {
          "internalType": "bytes32",
          "name": "_msgHash",
          "type": "bytes32"
        },
        {
          "internalType": "bytes",
          "name": "_signature",
          "type": "bytes"
        }
      ],
      "name": "registerUser",
      "outputs": [],
      "stateMutability": "nonpayable",
      "type": "function"
    },
    {
      "inputs": [
        {
          "internalType": "address",
          "name": "from",
          "type": "address"
        },
        {
          "internalType": "address",
          "name": "to",
          "type": "address"
        },
        {
          "internalType": "uint256[]",
          "name": "ids",
          "type": "uint256[]"
        },
        {
          "internalType": "uint256[]",
          "name": "amounts",
          "type": "uint256[]"
        },
        {
          "internalType": "bytes",
          "name": "data",
          "type": "bytes"
        }
      ],
      "name": "safeBatchTransferFrom",
      "outputs": [],
      "stateMutability": "nonpayable",
      "type": "function"
    },
    {
      "inputs": [
        {
          "internalType": "address",
          "name": "from",
          "type": "address"
        },
        {
          "internalType": "address",
          "name": "to",
          "type": "address"
        },
        {
          "internalType": "uint256",
          "name": "id",
          "type": "uint256"
        },
        {
          "internalType": "uint256",
          "name": "amount",
          "type": "uint256"
        },
        {
          "internalType": "bytes",
          "name": "data",
          "type": "bytes"
        }
      ],
      "name": "safeTransferFrom",
      "outputs": [],
      "stateMutability": "nonpayable",
      "type": "function"
    },
    {
      "inputs": [
        {
          "internalType": "address",
          "name": "operator",
          "type": "address"
        },
        {
          "internalType": "bool",
          "name": "approved",
          "type": "bool"
        }
      ],
      "name": "setApprovalForAll",
      "outputs": [],
      "stateMutability": "nonpayable",
      "type": "function"
    },
    {
      "inputs": [
        {
          "internalType": "bytes",
          "name": "sig",
          "type": "bytes"
        }
      ],
      "name": "splitSignature",
      "outputs": [
        {
          "internalType": "uint8",
          "name": "",
          "type": "uint8"
        },
        {
          "internalType": "bytes32",
          "name": "",
          "type": "bytes32"
        },
        {
          "internalType": "bytes32",
          "name": "",
          "type": "bytes32"
        }
      ],
      "stateMutability": "pure",
      "type": "function"
    },
    {
      "inputs": [
        {
          "internalType": "bytes4",
          "name": "interfaceId",
          "type": "bytes4"
        }
      ],
      "name": "supportsInterface",
      "outputs": [
        {
          "internalType": "bool",
          "name": "",
          "type": "bool"
        }
      ],
      "stateMutability": "view",
      "type": "function"
    },
    {
      "inputs": [
        {
          "internalType": "uint256",
          "name": "",
          "type": "uint256"
        }
      ],
      "name": "tokenURIs",
      "outputs": [
        {
          "internalType": "string",
          "name": "",
          "type": "string"
        }
      ],
      "stateMutability": "view",
      "type": "function"
    },
    {
      "inputs": [
        {
          "internalType": "uint256",
          "name": "",
          "type": "uint256"
        }
      ],
      "name": "uri",
      "outputs": [
        {
          "internalType": "string",
          "name": "",
          "type": "string"
        }
      ],
      "stateMutability": "view",
      "type": "function"
    },
    {
      "inputs": [
        {
          "internalType": "address",
          "name": "",
          "type": "address"
        }
      ],
      "name": "users",
      "outputs": [
        {
          "internalType": "bool",
          "name": "isVerified",
          "type": "bool"
        },
        {
          "internalType": "string",
          "name": "name",
          "type": "string"
        },
        {
          "internalType": "string",
          "name": "hometown",
          "type": "string"
        }
      ],
      "stateMutability": "view",
      "type": "function"
    }
  ],
  "transactionHash": "0x7442b0ee0d64cdecdbfc230c062eb11b2aa772509a11c27f323fc92914f098c6",
  "args": [],
  "numDeployments": 5,
  "solcInputHash": "70fed2ad004a207b1479d45658c07324",
  "bytecode": "0x608060405260006008553480156200001657600080fd5b5060408051808201909152600381526222a12360e91b60208201526200003c8162000055565b50600380546001600160a01b03191633179055620001d8565b60026200006382826200010c565b5050565b634e487b7160e01b600052604160045260246000fd5b600181811c908216806200009257607f821691505b602082108103620000b357634e487b7160e01b600052602260045260246000fd5b50919050565b601f8211156200010757600081815260208120601f850160051c81016020861015620000e25750805b601f850160051c820191505b818110156200010357828155600101620000ee565b5050505b505050565b81516001600160401b0381111562000128576200012862000067565b62000140816200013984546200007d565b84620000b9565b602080601f8311600181146200017857600084156200015f5750858301515b600019600386901b1c1916600185901b17855562000103565b600085815260208120601f198616915b82811015620001a95788860151825594840194600190910190840162000188565b5085821015620001c85787850151600019600388901b60f8161c191681555b5050505050600190811b01905550565b6131e580620001e86000396000f3fe6080604052600436106101345760003560e01c806397aba7f9116100ab578063bee5cdca1161006f578063bee5cdca146103c4578063bf60db3b146103f2578063c3c5a54714610412578063e985e9c514610442578063f242432a1461048b578063fa540801146104ab57600080fd5b806397aba7f9146102de578063a22cb46514610316578063a7bb580314610336578063a87430ba14610375578063b4eddc72146103a457600080fd5b8063401eaf73116100fd578063401eaf731461021c578063414aea431461023c5780634e1273f41461024f5780636c8b703f1461027c5780637fcacc0e1461029c57806380d03829146102bc57600080fd5b8062fdd58e1461013957806301ffc9a71461016c5780630e89341c1461019c578063107046bd146101c95780632eb2c2d6146101fa575b600080fd5b34801561014557600080fd5b5061015961015436600461247d565b6104cb565b6040519081526020015b60405180910390f35b34801561017857600080fd5b5061018c6101873660046124bd565b610564565b6040519015158152602001610163565b3480156101a857600080fd5b506101bc6101b73660046124e1565b6105b4565b6040516101639190612540565b3480156101d557600080fd5b506101e96101e43660046124e1565b610648565b604051610163959493929190612553565b34801561020657600080fd5b5061021a6102153660046126f8565b610819565b005b34801561022857600080fd5b5061021a6102373660046127a1565b610865565b61021a61024a366004612832565b610994565b34801561025b57600080fd5b5061026f61026a36600461293e565b610b1e565b6040516101639190612a43565b34801561028857600080fd5b506101bc6102973660046124e1565b610c47565b3480156102a857600080fd5b5061018c6102b7366004612a56565b610ce1565b3480156102c857600080fd5b506102d1610d66565b6040516101639190612b6e565b3480156102ea57600080fd5b506102fe6102f9366004612a56565b61110d565b6040516001600160a01b039091168152602001610163565b34801561032257600080fd5b5061021a610331366004612bd0565b61118c565b34801561034257600080fd5b50610356610351366004612c0c565b61119b565b6040805160ff9094168452602084019290925290820152606001610163565b34801561038157600080fd5b50610395610390366004612c48565b61120d565b60405161016393929190612c63565b3480156103b057600080fd5b506102d16103bf366004612c48565b611344565b3480156103d057600080fd5b506103e46103df3660046124e1565b611732565b604051610163929190612c9a565b3480156103fe57600080fd5b5061021a61040d366004612cbf565b611a14565b34801561041e57600080fd5b5061018c61042d366004612c48565b60066020526000908152604090205460ff1681565b34801561044e57600080fd5b5061018c61045d366004612cf3565b6001600160a01b03918216600090815260016020908152604080832093909416825291909152205460ff1690565b34801561049757600080fd5b5061021a6104a6366004612d26565b611b69565b3480156104b757600080fd5b506101596104c63660046124e1565b611bae565b60006001600160a01b03831661053b5760405162461bcd60e51b815260206004820152602a60248201527f455243313135353a2061646472657373207a65726f206973206e6f742061207660448201526930b634b21037bbb732b960b11b60648201526084015b60405180910390fd5b506000818152602081815260408083206001600160a01b03861684529091529020545b92915050565b60006001600160e01b03198216636cdb3d1360e11b148061059557506001600160e01b031982166303a24d0760e21b145b8061055e57506301ffc9a760e01b6001600160e01b031983161461055e565b6060600280546105c390612d8a565b80601f01602080910402602001604051908101604052809291908181526020018280546105ef90612d8a565b801561063c5780601f106106115761010080835404028352916020019161063c565b820191906000526020600020905b81548152906001019060200180831161061f57829003601f168201915b50505050509050919050565b60076020526000908152604090208054600182015460028301805492936001600160a01b039092169261067a90612d8a565b80601f01602080910402602001604051908101604052809291908181526020018280546106a690612d8a565b80156106f35780601f106106c8576101008083540402835291602001916106f3565b820191906000526020600020905b8154815290600101906020018083116106d657829003601f168201915b50505050509080600301805461070890612d8a565b80601f016020809104026020016040519081016040528092919081815260200182805461073490612d8a565b80156107815780601f1061075657610100808354040283529160200191610781565b820191906000526020600020905b81548152906001019060200180831161076457829003601f168201915b50505050509080600501805461079690612d8a565b80601f01602080910402602001604051908101604052809291908181526020018280546107c290612d8a565b801561080f5780601f106107e45761010080835404028352916020019161080f565b820191906000526020600020905b8154815290600101906020018083116107f257829003601f168201915b5050505050905085565b6001600160a01b0385163314806108355750610835853361045d565b6108515760405162461bcd60e51b815260040161053290612dbe565b61085e8585858585611c01565b5050505050565b3360009081526006602052604090205460ff16156108c55760405162461bcd60e51b815260206004820152601d60248201527f506c6179657220697320616c726561647920726567697374657265642e0000006044820152606401610532565b6108cf8282610ce1565b6109105760405162461bcd60e51b8152602060048201526012602482015271496e76616c69642054786e20536f7572636560701b6044820152606401610532565b604080516060810182526001808252602080830188815283850188905233600090815260059092529390208251815460ff191690151517815592519192919082019061095c9082612e57565b50604082015160028201906109719082612e57565b5050336000908152600660205260409020805460ff191660011790555050505050565b3360009081526006602052604090205460ff16610a035760405162461bcd60e51b815260206004820152602760248201527f4f6e6c7920726567697374657265642075736572732063616e206372656174206044820152661c1c9bda9958dd60ca1b6064820152608401610532565b6040805160c081018252600854808252336020808401918252838501898152606085018990526080850188905260a0850187905260009384526007909152939091208251815590516001820180546001600160a01b0319166001600160a01b0390921691909117905591519091906002820190610a809082612e57565b5060608201516003820190610a959082612e57565b5060808201518051610ab191600484019160209091019061235d565b5060a08201516005820190610ac69082612e57565b50905050610ae9336008546103e860405180602001604052806000815250611dde565b6008546000908152600460205260409020610b048282612e57565b50600860008154610b1490612f2c565b9091555050505050565b60608151835114610b835760405162461bcd60e51b815260206004820152602960248201527f455243313135353a206163636f756e747320616e6420696473206c656e677468604482015268040dad2e6dac2e8c6d60bb1b6064820152608401610532565b600083516001600160401b03811115610b9e57610b9e6125af565b604051908082528060200260200182016040528015610bc7578160200160208202803683370190505b50905060005b8451811015610c3f57610c12858281518110610beb57610beb612f45565b6020026020010151858381518110610c0557610c05612f45565b60200260200101516104cb565b828281518110610c2457610c24612f45565b6020908102919091010152610c3881612f2c565b9050610bcd565b509392505050565b60046020526000908152604090208054610c6090612d8a565b80601f0160208091040260200160405190810160405280929190818152602001828054610c8c90612d8a565b8015610cd95780601f10610cae57610100808354040283529160200191610cd9565b820191906000526020600020905b815481529060010190602001808311610cbc57829003601f168201915b505050505081565b600080610ced84611bae565b90506000610cfb828561110d565b6003549091506001600160a01b03808316911614610d5b5760405162461bcd60e51b815260206004820152601a60248201527f556e617574686f72697a656420436f6e74726163742063616c6c0000000000006044820152606401610532565b506001949350505050565b6060600854600003610da9576040805160008082526020820190925290610da3565b610d906123b3565b815260200190600190039081610d885790505b50905090565b60006008546001600160401b03811115610dc557610dc56125af565b604051908082528060200260200182016040528015610dfe57816020015b610deb6123b3565b815260200190600190039081610de35790505b50905060005b60085481101561110757600081815260076020908152604091829020825160c0810184528154815260018201546001600160a01b0316928101929092526002810180549293919291840191610e5890612d8a565b80601f0160208091040260200160405190810160405280929190818152602001828054610e8490612d8a565b8015610ed15780601f10610ea657610100808354040283529160200191610ed1565b820191906000526020600020905b815481529060010190602001808311610eb457829003601f168201915b50505050508152602001600382018054610eea90612d8a565b80601f0160208091040260200160405190810160405280929190818152602001828054610f1690612d8a565b8015610f635780601f10610f3857610100808354040283529160200191610f63565b820191906000526020600020905b815481529060010190602001808311610f4657829003601f168201915b5050505050815260200160048201805480602002602001604051908101604052809291908181526020016000905b8282101561103d578382906000526020600020018054610fb090612d8a565b80601f0160208091040260200160405190810160405280929190818152602001828054610fdc90612d8a565b80156110295780601f10610ffe57610100808354040283529160200191611029565b820191906000526020600020905b81548152906001019060200180831161100c57829003601f168201915b505050505081526020019060010190610f91565b50505050815260200160058201805461105590612d8a565b80601f016020809104026020016040519081016040528092919081815260200182805461108190612d8a565b80156110ce5780601f106110a3576101008083540402835291602001916110ce565b820191906000526020600020905b8154815290600101906020018083116110b157829003601f168201915b5050505050815250508282815181106110e9576110e9612f45565b602002602001018190525080806110ff90612f2c565b915050610e04565b50919050565b60008060008061111c8561119b565b6040805160008152602081018083528b905260ff8516918101919091526060810183905260808101829052929550909350915060019060a0016020604051602081039080840390855afa158015611177573d6000803e3d6000fd5b5050604051601f190151979650505050505050565b611197338383611ef2565b5050565b600080600083516041146111f15760405162461bcd60e51b815260206004820152601860248201527f696e76616c6964207369676e6174757265206c656e67746800000000000000006044820152606401610532565b5050506020810151604082015160609092015160001a92909190565b6005602052600090815260409020805460018201805460ff909216929161123390612d8a565b80601f016020809104026020016040519081016040528092919081815260200182805461125f90612d8a565b80156112ac5780601f10611281576101008083540402835291602001916112ac565b820191906000526020600020905b81548152906001019060200180831161128f57829003601f168201915b5050505050908060020180546112c190612d8a565b80601f01602080910402602001604051908101604052809291908181526020018280546112ed90612d8a565b801561133a5780601f1061130f5761010080835404028352916020019161133a565b820191906000526020600020905b81548152906001019060200180831161131d57829003601f168201915b5050505050905083565b60606000805b600854811015611398576000818152600760205260409020600101546001600160a01b03808616911603611386578161138281612f2c565b9250505b8061139081612f2c565b91505061134a565b506000816001600160401b038111156113b3576113b36125af565b6040519080825280602002602001820160405280156113ec57816020015b6113d96123b3565b8152602001906001900390816113d15790505b5090506000805b600854811015611728576000818152600760205260409020600101546001600160a01b0380881691160361171657600081815260076020908152604091829020825160c0810184528154815260018201546001600160a01b031692810192909252600281018054929391929184019161146b90612d8a565b80601f016020809104026020016040519081016040528092919081815260200182805461149790612d8a565b80156114e45780601f106114b9576101008083540402835291602001916114e4565b820191906000526020600020905b8154815290600101906020018083116114c757829003601f168201915b505050505081526020016003820180546114fd90612d8a565b80601f016020809104026020016040519081016040528092919081815260200182805461152990612d8a565b80156115765780601f1061154b57610100808354040283529160200191611576565b820191906000526020600020905b81548152906001019060200180831161155957829003601f168201915b5050505050815260200160048201805480602002602001604051908101604052809291908181526020016000905b828210156116505783829060005260206000200180546115c390612d8a565b80601f01602080910402602001604051908101604052809291908181526020018280546115ef90612d8a565b801561163c5780601f106116115761010080835404028352916020019161163c565b820191906000526020600020905b81548152906001019060200180831161161f57829003601f168201915b5050505050815260200190600101906115a4565b50505050815260200160058201805461166890612d8a565b80601f016020809104026020016040519081016040528092919081815260200182805461169490612d8a565b80156116e15780601f106116b6576101008083540402835291602001916116e1565b820191906000526020600020905b8154815290600101906020018083116116c457829003601f168201915b5050505050815250508383815181106116fc576116fc612f45565b6020026020010181905250818061171290612f2c565b9250505b8061172081612f2c565b9150506113f3565b5090949350505050565b61173a6123b3565b6000828152600760209081526040808320815160c0810183528154815260018201546001600160a01b03169381019390935260028101805460609594938401919061178490612d8a565b80601f01602080910402602001604051908101604052809291908181526020018280546117b090612d8a565b80156117fd5780601f106117d2576101008083540402835291602001916117fd565b820191906000526020600020905b8154815290600101906020018083116117e057829003601f168201915b5050505050815260200160038201805461181690612d8a565b80601f016020809104026020016040519081016040528092919081815260200182805461184290612d8a565b801561188f5780601f106118645761010080835404028352916020019161188f565b820191906000526020600020905b81548152906001019060200180831161187257829003601f168201915b5050505050815260200160048201805480602002602001604051908101604052809291908181526020016000905b828210156119695783829060005260206000200180546118dc90612d8a565b80601f016020809104026020016040519081016040528092919081815260200182805461190890612d8a565b80156119555780601f1061192a57610100808354040283529160200191611955565b820191906000526020600020905b81548152906001019060200180831161193857829003601f168201915b5050505050815260200190600101906118bd565b50505050815260200160058201805461198190612d8a565b80601f01602080910402602001604051908101604052809291908181526020018280546119ad90612d8a565b80156119fa5780601f106119cf576101008083540402835291602001916119fa565b820191906000526020600020905b8154815290600101906020018083116119dd57829003601f168201915b505050919092525050506080810151909590945092505050565b3360009081526006602052604090205460ff16611a7e5760405162461bcd60e51b815260206004820152602260248201527f4f6e6c7920726567697374657265642075736572732063616e20616464207461604482015261677360f01b6064820152608401610532565b611a888282610ce1565b611ac95760405162461bcd60e51b8152602060048201526012602482015271496e76616c69642054786e20536f7572636560701b6044820152606401610532565b60008481526007602052604090206004015460061015611b3e5760405162461bcd60e51b815260206004820152602a60248201527f4d6178696d756d206f66203620746167732061726520616c6c6f7765642070656044820152693910383937b532b1ba1760b11b6064820152608401610532565b60008481526007602090815260408220600401805460018101825590835291200161085e8482612e57565b6001600160a01b038516331480611b855750611b85853361045d565b611ba15760405162461bcd60e51b815260040161053290612dbe565b61085e8585858585611fd2565b6040517f19457468657265756d205369676e6564204d6573736167653a0a3332000000006020820152603c8101829052600090605c01604051602081830303815290604052805190602001209050919050565b8151835114611c635760405162461bcd60e51b815260206004820152602860248201527f455243313135353a2069647320616e6420616d6f756e7473206c656e677468206044820152670dad2e6dac2e8c6d60c31b6064820152608401610532565b6001600160a01b038416611c895760405162461bcd60e51b815260040161053290612f5b565b3360005b8451811015611d70576000858281518110611caa57611caa612f45565b602002602001015190506000858381518110611cc857611cc8612f45565b602090810291909101810151600084815280835260408082206001600160a01b038e168352909352919091205490915081811015611d185760405162461bcd60e51b815260040161053290612fa0565b6000838152602081815260408083206001600160a01b038e8116855292528083208585039055908b16825281208054849290611d55908490612fea565b9250508190555050505080611d6990612f2c565b9050611c8d565b50846001600160a01b0316866001600160a01b0316826001600160a01b03167f4a39dc06d4c0dbc64b70af90fd698a233a518aa5d07e595d983b8c0526c8f7fb8787604051611dc0929190612ffd565b60405180910390a4611dd68187878787876120fc565b505050505050565b6001600160a01b038416611e3e5760405162461bcd60e51b815260206004820152602160248201527f455243313135353a206d696e7420746f20746865207a65726f206164647265736044820152607360f81b6064820152608401610532565b336000611e4a85612257565b90506000611e5785612257565b90506000868152602081815260408083206001600160a01b038b16845290915281208054879290611e89908490612fea565b909155505060408051878152602081018790526001600160a01b03808a1692600092918716917fc3d58168c5ae7397731d063d5bbf3d657854427343f4c083240f7aacaa2d0f62910160405180910390a4611ee9836000898989896122a2565b50505050505050565b816001600160a01b0316836001600160a01b031603611f655760405162461bcd60e51b815260206004820152602960248201527f455243313135353a2073657474696e6720617070726f76616c20737461747573604482015268103337b91039b2b63360b91b6064820152608401610532565b6001600160a01b03838116600081815260016020908152604080832094871680845294825291829020805460ff191686151590811790915591519182527f17307eab39ab6107e8899845ad3d59bd9653f200f220920489ca2b5937696c31910160405180910390a3505050565b6001600160a01b038416611ff85760405162461bcd60e51b815260040161053290612f5b565b33600061200485612257565b9050600061201185612257565b90506000868152602081815260408083206001600160a01b038c168452909152902054858110156120545760405162461bcd60e51b815260040161053290612fa0565b6000878152602081815260408083206001600160a01b038d8116855292528083208985039055908a16825281208054889290612091908490612fea565b909155505060408051888152602081018890526001600160a01b03808b16928c821692918816917fc3d58168c5ae7397731d063d5bbf3d657854427343f4c083240f7aacaa2d0f62910160405180910390a46120f1848a8a8a8a8a6122a2565b505050505050505050565b6001600160a01b0384163b15611dd65760405163bc197c8160e01b81526001600160a01b0385169063bc197c81906121409089908990889088908890600401613022565b6020604051808303816000875af192505050801561217b575060408051601f3d908101601f1916820190925261217891810190613060565b60015b6122275761218761307d565b806308c379a0036121c0575061219b613099565b806121a657506121c2565b8060405162461bcd60e51b81526004016105329190612540565b505b60405162461bcd60e51b815260206004820152603460248201527f455243313135353a207472616e7366657220746f206e6f6e2d455243313135356044820152732932b1b2b4bb32b91034b6b83632b6b2b73a32b960611b6064820152608401610532565b6001600160e01b0319811663bc197c8160e01b14611ee95760405162461bcd60e51b815260040161053290613122565b6040805160018082528183019092526060916000919060208083019080368337019050509050828160008151811061229157612291612f45565b602090810291909101015292915050565b6001600160a01b0384163b15611dd65760405163f23a6e6160e01b81526001600160a01b0385169063f23a6e61906122e6908990899088908890889060040161316a565b6020604051808303816000875af1925050508015612321575060408051601f3d908101601f1916820190925261231e91810190613060565b60015b61232d5761218761307d565b6001600160e01b0319811663f23a6e6160e01b14611ee95760405162461bcd60e51b815260040161053290613122565b8280548282559060005260206000209081019282156123a3579160200282015b828111156123a357825182906123939082612e57565b509160200191906001019061237d565b506123af9291506123f2565b5090565b6040518060c001604052806000815260200160006001600160a01b03168152602001606081526020016060815260200160608152602001606081525090565b808211156123af576000612406828261240f565b506001016123f2565b50805461241b90612d8a565b6000825580601f1061242b575050565b601f016020900490600052602060002090810190612449919061244c565b50565b5b808211156123af576000815560010161244d565b80356001600160a01b038116811461247857600080fd5b919050565b6000806040838503121561249057600080fd5b61249983612461565b946020939093013593505050565b6001600160e01b03198116811461244957600080fd5b6000602082840312156124cf57600080fd5b81356124da816124a7565b9392505050565b6000602082840312156124f357600080fd5b5035919050565b6000815180845260005b8181101561252057602081850181015186830182015201612504565b506000602082860101526020601f19601f83011685010191505092915050565b6020815260006124da60208301846124fa565b8581526001600160a01b038516602082015260a06040820181905260009061257d908301866124fa565b828103606084015261258f81866124fa565b905082810360808401526125a381856124fa565b98975050505050505050565b634e487b7160e01b600052604160045260246000fd5b601f8201601f191681016001600160401b03811182821017156125ea576125ea6125af565b6040525050565b60006001600160401b0382111561260a5761260a6125af565b5060051b60200190565b600082601f83011261262557600080fd5b81356020612632826125f1565b60405161263f82826125c5565b83815260059390931b850182019282810191508684111561265f57600080fd5b8286015b8481101561267a5780358352918301918301612663565b509695505050505050565b600082601f83011261269657600080fd5b81356001600160401b038111156126af576126af6125af565b6040516126c6601f8301601f1916602001826125c5565b8181528460208386010111156126db57600080fd5b816020850160208301376000918101602001919091529392505050565b600080600080600060a0868803121561271057600080fd5b61271986612461565b945061272760208701612461565b935060408601356001600160401b038082111561274357600080fd5b61274f89838a01612614565b9450606088013591508082111561276557600080fd5b61277189838a01612614565b9350608088013591508082111561278757600080fd5b5061279488828901612685565b9150509295509295909350565b600080600080608085870312156127b757600080fd5b84356001600160401b03808211156127ce57600080fd5b6127da88838901612685565b955060208701359150808211156127f057600080fd5b6127fc88838901612685565b945060408701359350606087013591508082111561281957600080fd5b5061282687828801612685565b91505092959194509250565b6000806000806080858703121561284857600080fd5b84356001600160401b038082111561285f57600080fd5b61286b88838901612685565b955060209150818701358181111561288257600080fd5b61288e89828a01612685565b9550506040870135818111156128a357600080fd5b8701601f810189136128b457600080fd5b80356128bf816125f1565b6040516128cc82826125c5565b82815260059290921b830185019185810191508b8311156128ec57600080fd5b8584015b83811015612924578035868111156129085760008081fd5b6129168e8983890101612685565b8452509186019186016128f0565b509650505050606087013591508082111561281957600080fd5b6000806040838503121561295157600080fd5b82356001600160401b038082111561296857600080fd5b818501915085601f83011261297c57600080fd5b81356020612989826125f1565b60405161299682826125c5565b83815260059390931b85018201928281019150898411156129b657600080fd5b948201945b838610156129db576129cc86612461565b825294820194908201906129bb565b965050860135925050808211156129f157600080fd5b506129fe85828601612614565b9150509250929050565b600081518084526020808501945080840160005b83811015612a3857815187529582019590820190600101612a1c565b509495945050505050565b6020815260006124da6020830184612a08565b60008060408385031215612a6957600080fd5b8235915060208301356001600160401b03811115612a8657600080fd5b6129fe85828601612685565b600081518084526020808501808196508360051b8101915082860160005b85811015612ada578284038952612ac88483516124fa565b98850198935090840190600101612ab0565b5091979650505050505050565b8051825260018060a01b0360208201511660208301526000604082015160c06040850152612b1860c08501826124fa565b905060608301518482036060860152612b3182826124fa565b91505060808301518482036080860152612b4b8282612a92565b91505060a083015184820360a0860152612b6582826124fa565b95945050505050565b6000602080830181845280855180835260408601915060408160051b870101925083870160005b82811015612bc357603f19888603018452612bb1858351612ae7565b94509285019290850190600101612b95565b5092979650505050505050565b60008060408385031215612be357600080fd5b612bec83612461565b915060208301358015158114612c0157600080fd5b809150509250929050565b600060208284031215612c1e57600080fd5b81356001600160401b03811115612c3457600080fd5b612c4084828501612685565b949350505050565b600060208284031215612c5a57600080fd5b6124da82612461565b8315158152606060208201526000612c7e60608301856124fa565b8281036040840152612c9081856124fa565b9695505050505050565b604081526000612cad6040830185612ae7565b8281036020840152612b658185612a92565b60008060008060808587031215612cd557600080fd5b8435935060208501356001600160401b03808211156127f057600080fd5b60008060408385031215612d0657600080fd5b612d0f83612461565b9150612d1d60208401612461565b90509250929050565b600080600080600060a08688031215612d3e57600080fd5b612d4786612461565b9450612d5560208701612461565b9350604086013592506060860135915060808601356001600160401b03811115612d7e57600080fd5b61279488828901612685565b600181811c90821680612d9e57607f821691505b60208210810361110757634e487b7160e01b600052602260045260246000fd5b6020808252602e908201527f455243313135353a2063616c6c6572206973206e6f7420746f6b656e206f776e60408201526d195c881bdc88185c1c1c9bdd995960921b606082015260800190565b601f821115612e5257600081815260208120601f850160051c81016020861015612e335750805b601f850160051c820191505b81811015611dd657828155600101612e3f565b505050565b81516001600160401b03811115612e7057612e706125af565b612e8481612e7e8454612d8a565b84612e0c565b602080601f831160018114612eb95760008415612ea15750858301515b600019600386901b1c1916600185901b178555611dd6565b600085815260208120601f198616915b82811015612ee857888601518255948401946001909101908401612ec9565b5085821015612f065787850151600019600388901b60f8161c191681555b5050505050600190811b01905550565b634e487b7160e01b600052601160045260246000fd5b600060018201612f3e57612f3e612f16565b5060010190565b634e487b7160e01b600052603260045260246000fd5b60208082526025908201527f455243313135353a207472616e7366657220746f20746865207a65726f206164604082015264647265737360d81b606082015260800190565b6020808252602a908201527f455243313135353a20696e73756666696369656e742062616c616e636520666f60408201526939103a3930b739b332b960b11b606082015260800190565b8082018082111561055e5761055e612f16565b6040815260006130106040830185612a08565b8281036020840152612b658185612a08565b6001600160a01b0386811682528516602082015260a06040820181905260009061304e90830186612a08565b828103606084015261258f8186612a08565b60006020828403121561307257600080fd5b81516124da816124a7565b600060033d11156130965760046000803e5060005160e01c5b90565b600060443d10156130a75790565b6040516003193d81016004833e81513d6001600160401b0381602484011181841117156130d657505050505090565b82850191508151818111156130ee5750505050505090565b843d87010160208285010111156131085750505050505090565b613117602082860101876125c5565b509095945050505050565b60208082526028908201527f455243313135353a204552433131353552656365697665722072656a656374656040820152676420746f6b656e7360c01b606082015260800190565b6001600160a01b03868116825285166020820152604081018490526060810183905260a0608082018190526000906131a4908301846124fa565b97965050505050505056fea264697066735822122080ae6f967910889caeb186b4e6220a87d675ae62602ef9f5f9151f84bcf257af64736f6c63430008140033",
  "devdoc": {
    "events": {
      "ApprovalForAll(address,address,bool)": {
        "details": "Emitted when `account` grants or revokes permission to `operator` to transfer their tokens, according to `approved`."
      },
      "TransferBatch(address,address,address,uint256[],uint256[])": {
        "details": "Equivalent to multiple {TransferSingle} events, where `operator`, `from` and `to` are the same for all transfers."
      },
      "TransferSingle(address,address,address,uint256,uint256)": {
        "details": "Emitted when `value` tokens of token type `id` are transferred from `from` to `to` by `operator`."
      },
      "URI(string,uint256)": {
        "details": "Emitted when the URI for token type `id` changes to `value`, if it is a non-programmatic URI. If an {URI} event was emitted for `id`, the standard https://eips.ethereum.org/EIPS/eip-1155#metadata-extensions[guarantees] that `value` will equal the value returned by {IERC1155MetadataURI-uri}."
      }
    },
    "kind": "dev",
    "methods": {
      "balanceOf(address,uint256)": {
        "details": "See {IERC1155-balanceOf}. Requirements: - `account` cannot be the zero address."
      },
      "balanceOfBatch(address[],uint256[])": {
        "details": "See {IERC1155-balanceOfBatch}. Requirements: - `accounts` and `ids` must have the same length."
      },
      "isApprovedForAll(address,address)": {
        "details": "See {IERC1155-isApprovedForAll}."
      },
      "safeBatchTransferFrom(address,address,uint256[],uint256[],bytes)": {
        "details": "See {IERC1155-safeBatchTransferFrom}."
      },
      "safeTransferFrom(address,address,uint256,uint256,bytes)": {
        "details": "See {IERC1155-safeTransferFrom}."
      },
      "setApprovalForAll(address,bool)": {
        "details": "See {IERC1155-setApprovalForAll}."
      },
      "supportsInterface(bytes4)": {
        "details": "See {IERC165-supportsInterface}."
      },
      "uri(uint256)": {
        "details": "See {IERC1155MetadataURI-uri}. This implementation returns the same URI for *all* token types. It relies on the token type ID substitution mechanism https://eips.ethereum.org/EIPS/eip-1155#metadata[defined in the EIP]. Clients calling this function must replace the `\\{id\\}` substring with the actual token type ID."
      }
    },
    "version": 1
  },
  "userdoc": {
    "kind": "user",
    "methods": {},
    "version": 1
  },
  "storageLayout": {
    "storage": [
      {
        "astId": 25,
        "contract": "contracts/EBF.sol:EBF",
        "label": "_balances",
        "offset": 0,
        "slot": "0",
        "type": "t_mapping(t_uint256,t_mapping(t_address,t_uint256))"
      },
      {
        "astId": 31,
        "contract": "contracts/EBF.sol:EBF",
        "label": "_operatorApprovals",
        "offset": 0,
        "slot": "1",
        "type": "t_mapping(t_address,t_mapping(t_address,t_bool))"
      },
      {
        "astId": 33,
        "contract": "contracts/EBF.sol:EBF",
        "label": "_uri",
        "offset": 0,
        "slot": "2",
        "type": "t_string_storage"
      },
      {
        "astId": 2244,
        "contract": "contracts/EBF.sol:EBF",
        "label": "deployer",
        "offset": 0,
        "slot": "3",
        "type": "t_address"
      },
      {
        "astId": 2248,
        "contract": "contracts/EBF.sol:EBF",
        "label": "tokenURIs",
        "offset": 0,
        "slot": "4",
        "type": "t_mapping(t_uint256,t_string_storage)"
      },
      {
        "astId": 2253,
        "contract": "contracts/EBF.sol:EBF",
        "label": "users",
        "offset": 0,
        "slot": "5",
        "type": "t_mapping(t_address,t_struct(User)2272_storage)"
      },
      {
        "astId": 2257,
        "contract": "contracts/EBF.sol:EBF",
        "label": "isRegistered",
        "offset": 0,
        "slot": "6",
        "type": "t_mapping(t_address,t_bool)"
      },
      {
        "astId": 2262,
        "contract": "contracts/EBF.sol:EBF",
        "label": "projects",
        "offset": 0,
        "slot": "7",
        "type": "t_mapping(t_uint256,t_struct(Project)2286_storage)"
      },
      {
        "astId": 1800,
        "contract": "contracts/EBF.sol:EBF",
        "label": "projectCounter",
        "offset": 0,
        "slot": "8",
        "type": "t_uint256"
      }
    ],
    "types": {
      "t_address": {
        "encoding": "inplace",
        "label": "address",
        "numberOfBytes": "20"
      },
      "t_array(t_string_storage)dyn_storage": {
        "base": "t_string_storage",
        "encoding": "dynamic_array",
        "label": "string[]",
        "numberOfBytes": "32"
      },
      "t_bool": {
        "encoding": "inplace",
        "label": "bool",
        "numberOfBytes": "1"
      },
      "t_mapping(t_address,t_bool)": {
        "encoding": "mapping",
        "key": "t_address",
        "label": "mapping(address => bool)",
        "numberOfBytes": "32",
        "value": "t_bool"
      },
      "t_mapping(t_address,t_mapping(t_address,t_bool))": {
        "encoding": "mapping",
        "key": "t_address",
        "label": "mapping(address => mapping(address => bool))",
        "numberOfBytes": "32",
        "value": "t_mapping(t_address,t_bool)"
      },
      "t_mapping(t_address,t_struct(User)2272_storage)": {
        "encoding": "mapping",
        "key": "t_address",
        "label": "mapping(address => struct Structs.User)",
        "numberOfBytes": "32",
        "value": "t_struct(User)2272_storage"
      },
      "t_mapping(t_address,t_uint256)": {
        "encoding": "mapping",
        "key": "t_address",
        "label": "mapping(address => uint256)",
        "numberOfBytes": "32",
        "value": "t_uint256"
      },
      "t_mapping(t_uint256,t_mapping(t_address,t_uint256))": {
        "encoding": "mapping",
        "key": "t_uint256",
        "label": "mapping(uint256 => mapping(address => uint256))",
        "numberOfBytes": "32",
        "value": "t_mapping(t_address,t_uint256)"
      },
      "t_mapping(t_uint256,t_string_storage)": {
        "encoding": "mapping",
        "key": "t_uint256",
        "label": "mapping(uint256 => string)",
        "numberOfBytes": "32",
        "value": "t_string_storage"
      },
      "t_mapping(t_uint256,t_struct(Project)2286_storage)": {
        "encoding": "mapping",
        "key": "t_uint256",
        "label": "mapping(uint256 => struct Structs.Project)",
        "numberOfBytes": "32",
        "value": "t_struct(Project)2286_storage"
      },
      "t_string_storage": {
        "encoding": "bytes",
        "label": "string",
        "numberOfBytes": "32"
      },
      "t_struct(Project)2286_storage": {
        "encoding": "inplace",
        "label": "struct Structs.Project",
        "members": [
          {
            "astId": 2274,
            "contract": "contracts/EBF.sol:EBF",
            "label": "id",
            "offset": 0,
            "slot": "0",
            "type": "t_uint256"
          },
          {
            "astId": 2276,
            "contract": "contracts/EBF.sol:EBF",
            "label": "registeredBy",
            "offset": 0,
            "slot": "1",
            "type": "t_address"
          },
          {
            "astId": 2278,
            "contract": "contracts/EBF.sol:EBF",
            "label": "projectName",
            "offset": 0,
            "slot": "2",
            "type": "t_string_storage"
          },
          {
            "astId": 2280,
            "contract": "contracts/EBF.sol:EBF",
            "label": "projectDescription",
            "offset": 0,
            "slot": "3",
            "type": "t_string_storage"
          },
          {
            "astId": 2283,
            "contract": "contracts/EBF.sol:EBF",
            "label": "tags",
            "offset": 0,
            "slot": "4",
            "type": "t_array(t_string_storage)dyn_storage"
          },
          {
            "astId": 2285,
            "contract": "contracts/EBF.sol:EBF",
            "label": "ipfsURI",
            "offset": 0,
            "slot": "5",
            "type": "t_string_storage"
          }
        ],
        "numberOfBytes": "192"
      },
      "t_struct(User)2272_storage": {
        "encoding": "inplace",
        "label": "struct Structs.User",
        "members": [
          {
            "astId": 2267,
            "contract": "contracts/EBF.sol:EBF",
            "label": "isVerified",
            "offset": 0,
            "slot": "0",
            "type": "t_bool"
          },
          {
            "astId": 2269,
            "contract": "contracts/EBF.sol:EBF",
            "label": "name",
            "offset": 0,
            "slot": "1",
            "type": "t_string_storage"
          },
          {
            "astId": 2271,
            "contract": "contracts/EBF.sol:EBF",
            "label": "hometown",
            "offset": 0,
            "slot": "2",
            "type": "t_string_storage"
          }
        ],
        "numberOfBytes": "96"
      },
      "t_uint256": {
        "encoding": "inplace",
        "label": "uint256",
        "numberOfBytes": "32"
      }
    }
  }
}