{
  "address": "0x54Bfc7a958da74Ff582dF6d8827663854B7A69C6",
  "abi": [
    {
      "inputs": [],
      "stateMutability": "nonpayable",
      "type": "constructor"
    },
    {
      "anonymous": false,
      "inputs": [
        {
          "indexed": true,
          "internalType": "address",
          "name": "account",
          "type": "address"
        },
        {
          "indexed": true,
          "internalType": "address",
          "name": "operator",
          "type": "address"
        },
        {
          "indexed": false,
          "internalType": "bool",
          "name": "approved",
          "type": "bool"
        }
      ],
      "name": "ApprovalForAll",
      "type": "event"
    },
    {
      "anonymous": false,
      "inputs": [
        {
          "indexed": true,
          "internalType": "address",
          "name": "operator",
          "type": "address"
        },
        {
          "indexed": true,
          "internalType": "address",
          "name": "from",
          "type": "address"
        },
        {
          "indexed": true,
          "internalType": "address",
          "name": "to",
          "type": "address"
        },
        {
          "indexed": false,
          "internalType": "uint256[]",
          "name": "ids",
          "type": "uint256[]"
        },
        {
          "indexed": false,
          "internalType": "uint256[]",
          "name": "values",
          "type": "uint256[]"
        }
      ],
      "name": "TransferBatch",
      "type": "event"
    },
    {
      "anonymous": false,
      "inputs": [
        {
          "indexed": true,
          "internalType": "address",
          "name": "operator",
          "type": "address"
        },
        {
          "indexed": true,
          "internalType": "address",
          "name": "from",
          "type": "address"
        },
        {
          "indexed": true,
          "internalType": "address",
          "name": "to",
          "type": "address"
        },
        {
          "indexed": false,
          "internalType": "uint256",
          "name": "id",
          "type": "uint256"
        },
        {
          "indexed": false,
          "internalType": "uint256",
          "name": "value",
          "type": "uint256"
        }
      ],
      "name": "TransferSingle",
      "type": "event"
    },
    {
      "anonymous": false,
      "inputs": [
        {
          "indexed": false,
          "internalType": "string",
          "name": "value",
          "type": "string"
        },
        {
          "indexed": true,
          "internalType": "uint256",
          "name": "id",
          "type": "uint256"
        }
      ],
      "name": "URI",
      "type": "event"
    },
    {
      "inputs": [
        {
          "internalType": "address",
          "name": "account",
          "type": "address"
        },
        {
          "internalType": "uint256",
          "name": "id",
          "type": "uint256"
        }
      ],
      "name": "balanceOf",
      "outputs": [
        {
          "internalType": "uint256",
          "name": "",
          "type": "uint256"
        }
      ],
      "stateMutability": "view",
      "type": "function"
    },
    {
      "inputs": [
        {
          "internalType": "address[]",
          "name": "accounts",
          "type": "address[]"
        },
        {
          "internalType": "uint256[]",
          "name": "ids",
          "type": "uint256[]"
        }
      ],
      "name": "balanceOfBatch",
      "outputs": [
        {
          "internalType": "uint256[]",
          "name": "",
          "type": "uint256[]"
        }
      ],
      "stateMutability": "view",
      "type": "function"
    },
    {
      "inputs": [
        {
          "internalType": "string",
          "name": "_projectName",
          "type": "string"
        },
        {
          "internalType": "string",
          "name": "_projectType",
          "type": "string"
        },
        {
          "internalType": "string",
          "name": "_uri",
          "type": "string"
        }
      ],
      "name": "createProject",
      "outputs": [],
      "stateMutability": "payable",
      "type": "function"
    },
    {
      "inputs": [],
      "name": "getAllProjects",
      "outputs": [
        {
          "components": [
            {
              "internalType": "address",
              "name": "registeredBy",
              "type": "address"
            },
            {
              "internalType": "string",
              "name": "projectName",
              "type": "string"
            },
            {
              "internalType": "string",
              "name": "projectType",
              "type": "string"
            },
            {
              "internalType": "string",
              "name": "ipfsURI",
              "type": "string"
            }
          ],
          "internalType": "struct Structs.Project[]",
          "name": "",
          "type": "tuple[]"
        }
      ],
      "stateMutability": "view",
      "type": "function"
    },
    {
      "inputs": [
        {
          "internalType": "bytes32",
          "name": "_messageHash",
          "type": "bytes32"
        }
      ],
      "name": "getEthSignedMessageHash",
      "outputs": [
        {
          "internalType": "bytes32",
          "name": "",
          "type": "bytes32"
        }
      ],
      "stateMutability": "pure",
      "type": "function"
    },
    {
      "inputs": [
        {
          "internalType": "address",
          "name": "account",
          "type": "address"
        },
        {
          "internalType": "address",
          "name": "operator",
          "type": "address"
        }
      ],
      "name": "isApprovedForAll",
      "outputs": [
        {
          "internalType": "bool",
          "name": "",
          "type": "bool"
        }
      ],
      "stateMutability": "view",
      "type": "function"
    },
    {
      "inputs": [
        {
          "internalType": "address",
          "name": "",
          "type": "address"
        }
      ],
      "name": "isRegistered",
      "outputs": [
        {
          "internalType": "bool",
          "name": "",
          "type": "bool"
        }
      ],
      "stateMutability": "view",
      "type": "function"
    },
    {
      "inputs": [
        {
          "internalType": "bytes32",
          "name": "_messageHash",
          "type": "bytes32"
        },
        {
          "internalType": "bytes",
          "name": "_signature",
          "type": "bytes"
        }
      ],
      "name": "isVerified",
      "outputs": [
        {
          "internalType": "bool",
          "name": "",
          "type": "bool"
        }
      ],
      "stateMutability": "view",
      "type": "function"
    },
    {
      "inputs": [
        {
          "internalType": "uint256",
          "name": "projectId",
          "type": "uint256"
        }
      ],
      "name": "projects",
      "outputs": [
        {
          "internalType": "address",
          "name": "registeredBy",
          "type": "address"
        },
        {
          "internalType": "string",
          "name": "projectName",
          "type": "string"
        },
        {
          "internalType": "string",
          "name": "projectType",
          "type": "string"
        },
        {
          "internalType": "string",
          "name": "ipfsURI",
          "type": "string"
        }
      ],
      "stateMutability": "view",
      "type": "function"
    },
    {
      "inputs": [
        {
          "internalType": "bytes32",
          "name": "_ethSignedMessageHash",
          "type": "bytes32"
        },
        {
          "internalType": "bytes",
          "name": "_signature",
          "type": "bytes"
        }
      ],
      "name": "recoverSigner",
      "outputs": [
        {
          "internalType": "address",
          "name": "",
          "type": "address"
        }
      ],
      "stateMutability": "pure",
      "type": "function"
    },
    {
      "inputs": [
        {
          "internalType": "string",
          "name": "_name",
          "type": "string"
        },
        {
          "internalType": "string",
          "name": "_homeTown",
          "type": "string"
        },
        {
          "internalType": "bytes32",
          "name": "_msgHash",
          "type": "bytes32"
        },
        {
          "internalType": "bytes",
          "name": "_signature",
          "type": "bytes"
        }
      ],
      "name": "registerUser",
      "outputs": [],
      "stateMutability": "nonpayable",
      "type": "function"
    },
    {
      "inputs": [
        {
          "internalType": "address",
          "name": "from",
          "type": "address"
        },
        {
          "internalType": "address",
          "name": "to",
          "type": "address"
        },
        {
          "internalType": "uint256[]",
          "name": "ids",
          "type": "uint256[]"
        },
        {
          "internalType": "uint256[]",
          "name": "amounts",
          "type": "uint256[]"
        },
        {
          "internalType": "bytes",
          "name": "data",
          "type": "bytes"
        }
      ],
      "name": "safeBatchTransferFrom",
      "outputs": [],
      "stateMutability": "nonpayable",
      "type": "function"
    },
    {
      "inputs": [
        {
          "internalType": "address",
          "name": "from",
          "type": "address"
        },
        {
          "internalType": "address",
          "name": "to",
          "type": "address"
        },
        {
          "internalType": "uint256",
          "name": "id",
          "type": "uint256"
        },
        {
          "internalType": "uint256",
          "name": "amount",
          "type": "uint256"
        },
        {
          "internalType": "bytes",
          "name": "data",
          "type": "bytes"
        }
      ],
      "name": "safeTransferFrom",
      "outputs": [],
      "stateMutability": "nonpayable",
      "type": "function"
    },
    {
      "inputs": [
        {
          "internalType": "address",
          "name": "operator",
          "type": "address"
        },
        {
          "internalType": "bool",
          "name": "approved",
          "type": "bool"
        }
      ],
      "name": "setApprovalForAll",
      "outputs": [],
      "stateMutability": "nonpayable",
      "type": "function"
    },
    {
      "inputs": [
        {
          "internalType": "bytes",
          "name": "sig",
          "type": "bytes"
        }
      ],
      "name": "splitSignature",
      "outputs": [
        {
          "internalType": "uint8",
          "name": "",
          "type": "uint8"
        },
        {
          "internalType": "bytes32",
          "name": "",
          "type": "bytes32"
        },
        {
          "internalType": "bytes32",
          "name": "",
          "type": "bytes32"
        }
      ],
      "stateMutability": "pure",
      "type": "function"
    },
    {
      "inputs": [
        {
          "internalType": "bytes4",
          "name": "interfaceId",
          "type": "bytes4"
        }
      ],
      "name": "supportsInterface",
      "outputs": [
        {
          "internalType": "bool",
          "name": "",
          "type": "bool"
        }
      ],
      "stateMutability": "view",
      "type": "function"
    },
    {
      "inputs": [
        {
          "internalType": "uint256",
          "name": "",
          "type": "uint256"
        }
      ],
      "name": "tokenURIs",
      "outputs": [
        {
          "internalType": "string",
          "name": "",
          "type": "string"
        }
      ],
      "stateMutability": "view",
      "type": "function"
    },
    {
      "inputs": [
        {
          "internalType": "uint256",
          "name": "",
          "type": "uint256"
        }
      ],
      "name": "uri",
      "outputs": [
        {
          "internalType": "string",
          "name": "",
          "type": "string"
        }
      ],
      "stateMutability": "view",
      "type": "function"
    },
    {
      "inputs": [
        {
          "internalType": "address",
          "name": "",
          "type": "address"
        }
      ],
      "name": "users",
      "outputs": [
        {
          "internalType": "bool",
          "name": "isVerified",
          "type": "bool"
        },
        {
          "internalType": "string",
          "name": "name",
          "type": "string"
        },
        {
          "internalType": "string",
          "name": "hometown",
          "type": "string"
        }
      ],
      "stateMutability": "view",
      "type": "function"
    }
  ],
  "transactionHash": "0x0ed186dc8a0566e9782700cccd46baba2bcaabe94593e41ee8e2313b1a427e44",
  "args": [],
  "numDeployments": 1,
  "solcInputHash": "7efc7f11f2af756f0071bbd666779c95",
  "bytecode": "0x608060405260006008553480156200001657600080fd5b5060408051808201909152600381526222a12360e91b60208201526200003c8162000055565b50600380546001600160a01b03191633179055620001d8565b60026200006382826200010c565b5050565b634e487b7160e01b600052604160045260246000fd5b600181811c908216806200009257607f821691505b602082108103620000b357634e487b7160e01b600052602260045260246000fd5b50919050565b601f8211156200010757600081815260208120601f850160051c81016020861015620000e25750805b601f850160051c820191505b818110156200010357828155600101620000ee565b5050505b505050565b81516001600160401b0381111562000128576200012862000067565b62000140816200013984546200007d565b84620000b9565b602080601f8311600181146200017857600084156200015f5750858301515b600019600386901b1c1916600185901b17855562000103565b600085815260208120601f198616915b82811015620001a95788860151825594840194600190910190840162000188565b5085821015620001c85787850151600019600388901b60f8161c191681555b5050505050600190811b01905550565b61261480620001e86000396000f3fe6080604052600436106101135760003560e01c806380d03829116100a0578063c3c5a54711610064578063c3c5a5471461036f578063cf7be6ec1461039f578063e985e9c5146103b2578063f242432a146103fb578063fa5408011461041b57600080fd5b806380d038291461028757806397aba7f9146102a9578063a22cb465146102e1578063a7bb580314610301578063a87430ba1461034057600080fd5b80632eb2c2d6116100e75780632eb2c2d6146101d8578063401eaf73146101fa5780634e1273f41461021a5780636c8b703f146102475780637fcacc0e1461026757600080fd5b8062fdd58e1461011857806301ffc9a71461014b5780630e89341c1461017b578063107046bd146101a8575b600080fd5b34801561012457600080fd5b506101386101333660046119f7565b61043b565b6040519081526020015b60405180910390f35b34801561015757600080fd5b5061016b610166366004611a3a565b6104d4565b6040519015158152602001610142565b34801561018757600080fd5b5061019b610196366004611a5e565b610524565b6040516101429190611abd565b3480156101b457600080fd5b506101c86101c3366004611a5e565b6105b8565b6040516101429493929190611ad0565b3480156101e457600080fd5b506101f86101f3366004611c6e565b610783565b005b34801561020657600080fd5b506101f8610215366004611d17565b6107cf565b34801561022657600080fd5b5061023a610235366004611da8565b6108fe565b6040516101429190611ead565b34801561025357600080fd5b5061019b610262366004611a5e565b610a27565b34801561027357600080fd5b5061016b610282366004611ec0565b610ac1565b34801561029357600080fd5b5061029c610b46565b6040516101429190611efc565b3480156102b557600080fd5b506102c96102c4366004611ec0565b610e5e565b6040516001600160a01b039091168152602001610142565b3480156102ed57600080fd5b506101f86102fc366004611fb3565b610edd565b34801561030d57600080fd5b5061032161031c366004611fef565b610eec565b6040805160ff9094168452602084019290925290820152606001610142565b34801561034c57600080fd5b5061036061035b36600461202b565b610f5e565b60405161014293929190612046565b34801561037b57600080fd5b5061016b61038a36600461202b565b60066020526000908152604090205460ff1681565b6101f86103ad36600461207d565b611095565b3480156103be57600080fd5b5061016b6103cd366004612104565b6001600160a01b03918216600090815260016020908152604080832093909416825291909152205460ff1690565b34801561040757600080fd5b506101f8610416366004612137565b6111e7565b34801561042757600080fd5b50610138610436366004611a5e565b61122c565b60006001600160a01b0383166104ab5760405162461bcd60e51b815260206004820152602a60248201527f455243313135353a2061646472657373207a65726f206973206e6f742061207660448201526930b634b21037bbb732b960b11b60648201526084015b60405180910390fd5b506000818152602081815260408083206001600160a01b03861684529091529020545b92915050565b60006001600160e01b03198216636cdb3d1360e11b148061050557506001600160e01b031982166303a24d0760e21b145b806104ce57506301ffc9a760e01b6001600160e01b03198316146104ce565b6060600280546105339061219b565b80601f016020809104026020016040519081016040528092919081815260200182805461055f9061219b565b80156105ac5780601f10610581576101008083540402835291602001916105ac565b820191906000526020600020905b81548152906001019060200180831161058f57829003601f168201915b50505050509050919050565b600760205260009081526040902080546001820180546001600160a01b0390921692916105e49061219b565b80601f01602080910402602001604051908101604052809291908181526020018280546106109061219b565b801561065d5780601f106106325761010080835404028352916020019161065d565b820191906000526020600020905b81548152906001019060200180831161064057829003601f168201915b5050505050908060020180546106729061219b565b80601f016020809104026020016040519081016040528092919081815260200182805461069e9061219b565b80156106eb5780601f106106c0576101008083540402835291602001916106eb565b820191906000526020600020905b8154815290600101906020018083116106ce57829003601f168201915b5050505050908060030180546107009061219b565b80601f016020809104026020016040519081016040528092919081815260200182805461072c9061219b565b80156107795780601f1061074e57610100808354040283529160200191610779565b820191906000526020600020905b81548152906001019060200180831161075c57829003601f168201915b5050505050905084565b6001600160a01b03851633148061079f575061079f85336103cd565b6107bb5760405162461bcd60e51b81526004016104a2906121cf565b6107c8858585858561127f565b5050505050565b3360009081526006602052604090205460ff161561082f5760405162461bcd60e51b815260206004820152601d60248201527f506c6179657220697320616c726561647920726567697374657265642e00000060448201526064016104a2565b6108398282610ac1565b61087a5760405162461bcd60e51b8152602060048201526012602482015271496e76616c69642054786e20536f7572636560701b60448201526064016104a2565b604080516060810182526001808252602080830188815283850188905233600090815260059092529390208251815460ff19169015151781559251919291908201906108c69082612268565b50604082015160028201906108db9082612268565b5050336000908152600660205260409020805460ff191660011790555050505050565b606081518351146109635760405162461bcd60e51b815260206004820152602960248201527f455243313135353a206163636f756e747320616e6420696473206c656e677468604482015268040dad2e6dac2e8c6d60bb1b60648201526084016104a2565b600083516001600160401b0381111561097e5761097e611b25565b6040519080825280602002602001820160405280156109a7578160200160208202803683370190505b50905060005b8451811015610a1f576109f28582815181106109cb576109cb612327565b60200260200101518583815181106109e5576109e5612327565b602002602001015161043b565b828281518110610a0457610a04612327565b6020908102919091010152610a1881612353565b90506109ad565b509392505050565b60046020526000908152604090208054610a409061219b565b80601f0160208091040260200160405190810160405280929190818152602001828054610a6c9061219b565b8015610ab95780601f10610a8e57610100808354040283529160200191610ab9565b820191906000526020600020905b815481529060010190602001808311610a9c57829003601f168201915b505050505081565b600080610acd8461122c565b90506000610adb8285610e5e565b6003549091506001600160a01b03808316911614610b3b5760405162461bcd60e51b815260206004820152601a60248201527f556e617574686f72697a656420436f6e74726163742063616c6c00000000000060448201526064016104a2565b506001949350505050565b6060600854600003610bb5576040805160008082526020820190925290610baf565b610b9c604051806080016040528060006001600160a01b031681526020016060815260200160608152602001606081525090565b815260200190600190039081610b685790505b50905090565b60006008546001600160401b03811115610bd157610bd1611b25565b604051908082528060200260200182016040528015610c3657816020015b610c23604051806080016040528060006001600160a01b031681526020016060815260200160608152602001606081525090565b815260200190600190039081610bef5790505b50905060005b600854811015610e585760008181526007602090815260409182902082516080810190935280546001600160a01b031683526001810180549192840191610c829061219b565b80601f0160208091040260200160405190810160405280929190818152602001828054610cae9061219b565b8015610cfb5780601f10610cd057610100808354040283529160200191610cfb565b820191906000526020600020905b815481529060010190602001808311610cde57829003601f168201915b50505050508152602001600282018054610d149061219b565b80601f0160208091040260200160405190810160405280929190818152602001828054610d409061219b565b8015610d8d5780601f10610d6257610100808354040283529160200191610d8d565b820191906000526020600020905b815481529060010190602001808311610d7057829003601f168201915b50505050508152602001600382018054610da69061219b565b80601f0160208091040260200160405190810160405280929190818152602001828054610dd29061219b565b8015610e1f5780601f10610df457610100808354040283529160200191610e1f565b820191906000526020600020905b815481529060010190602001808311610e0257829003601f168201915b505050505081525050828281518110610e3a57610e3a612327565b60200260200101819052508080610e5090612353565b915050610c3c565b50919050565b600080600080610e6d85610eec565b6040805160008152602081018083528b905260ff8516918101919091526060810183905260808101829052929550909350915060019060a0016020604051602081039080840390855afa158015610ec8573d6000803e3d6000fd5b5050604051601f190151979650505050505050565b610ee833838361145c565b5050565b60008060008351604114610f425760405162461bcd60e51b815260206004820152601860248201527f696e76616c6964207369676e6174757265206c656e677468000000000000000060448201526064016104a2565b5050506020810151604082015160609092015160001a92909190565b6005602052600090815260409020805460018201805460ff9092169291610f849061219b565b80601f0160208091040260200160405190810160405280929190818152602001828054610fb09061219b565b8015610ffd5780601f10610fd257610100808354040283529160200191610ffd565b820191906000526020600020905b815481529060010190602001808311610fe057829003601f168201915b5050505050908060020180546110129061219b565b80601f016020809104026020016040519081016040528092919081815260200182805461103e9061219b565b801561108b5780601f106110605761010080835404028352916020019161108b565b820191906000526020600020905b81548152906001019060200180831161106e57829003601f168201915b5050505050905083565b3360009081526006602052604090205460ff166111045760405162461bcd60e51b815260206004820152602760248201527f4f6e6c7920726567697374657265642075736572732063616e206372656174206044820152661c1c9bda9958dd60ca1b60648201526084016104a2565b6040805160808101825233815260208082018681528284018690526060830185905260085460009081526007909252929020815181546001600160a01b0319166001600160a01b03909116178155915190919060018201906111669082612268565b506040820151600282019061117b9082612268565b50606082015160038201906111909082612268565b509050506111b3336008546103e86040518060200160405280600081525061153c565b60085460009081526004602052604090206111ce8282612268565b506008600081546111de90612353565b90915550505050565b6001600160a01b038516331480611203575061120385336103cd565b61121f5760405162461bcd60e51b81526004016104a2906121cf565b6107c88585858585611650565b6040517f19457468657265756d205369676e6564204d6573736167653a0a3332000000006020820152603c8101829052600090605c01604051602081830303815290604052805190602001209050919050565b81518351146112e15760405162461bcd60e51b815260206004820152602860248201527f455243313135353a2069647320616e6420616d6f756e7473206c656e677468206044820152670dad2e6dac2e8c6d60c31b60648201526084016104a2565b6001600160a01b0384166113075760405162461bcd60e51b81526004016104a29061236c565b3360005b84518110156113ee57600085828151811061132857611328612327565b60200260200101519050600085838151811061134657611346612327565b602090810291909101810151600084815280835260408082206001600160a01b038e1683529093529190912054909150818110156113965760405162461bcd60e51b81526004016104a2906123b1565b6000838152602081815260408083206001600160a01b038e8116855292528083208585039055908b168252812080548492906113d39084906123fb565b92505081905550505050806113e790612353565b905061130b565b50846001600160a01b0316866001600160a01b0316826001600160a01b03167f4a39dc06d4c0dbc64b70af90fd698a233a518aa5d07e595d983b8c0526c8f7fb878760405161143e92919061240e565b60405180910390a461145481878787878761177a565b505050505050565b816001600160a01b0316836001600160a01b0316036114cf5760405162461bcd60e51b815260206004820152602960248201527f455243313135353a2073657474696e6720617070726f76616c20737461747573604482015268103337b91039b2b63360b91b60648201526084016104a2565b6001600160a01b03838116600081815260016020908152604080832094871680845294825291829020805460ff191686151590811790915591519182527f17307eab39ab6107e8899845ad3d59bd9653f200f220920489ca2b5937696c31910160405180910390a3505050565b6001600160a01b03841661159c5760405162461bcd60e51b815260206004820152602160248201527f455243313135353a206d696e7420746f20746865207a65726f206164647265736044820152607360f81b60648201526084016104a2565b3360006115a8856118d5565b905060006115b5856118d5565b90506000868152602081815260408083206001600160a01b038b168452909152812080548792906115e79084906123fb565b909155505060408051878152602081018790526001600160a01b03808a1692600092918716917fc3d58168c5ae7397731d063d5bbf3d657854427343f4c083240f7aacaa2d0f62910160405180910390a461164783600089898989611920565b50505050505050565b6001600160a01b0384166116765760405162461bcd60e51b81526004016104a29061236c565b336000611682856118d5565b9050600061168f856118d5565b90506000868152602081815260408083206001600160a01b038c168452909152902054858110156116d25760405162461bcd60e51b81526004016104a2906123b1565b6000878152602081815260408083206001600160a01b038d8116855292528083208985039055908a1682528120805488929061170f9084906123fb565b909155505060408051888152602081018890526001600160a01b03808b16928c821692918816917fc3d58168c5ae7397731d063d5bbf3d657854427343f4c083240f7aacaa2d0f62910160405180910390a461176f848a8a8a8a8a611920565b505050505050505050565b6001600160a01b0384163b156114545760405163bc197c8160e01b81526001600160a01b0385169063bc197c81906117be908990899088908890889060040161243c565b6020604051808303816000875af19250505080156117f9575060408051601f3d908101601f191682019092526117f69181019061249a565b60015b6118a5576118056124b7565b806308c379a00361183e57506118196124d3565b806118245750611840565b8060405162461bcd60e51b81526004016104a29190611abd565b505b60405162461bcd60e51b815260206004820152603460248201527f455243313135353a207472616e7366657220746f206e6f6e2d455243313135356044820152732932b1b2b4bb32b91034b6b83632b6b2b73a32b960611b60648201526084016104a2565b6001600160e01b0319811663bc197c8160e01b146116475760405162461bcd60e51b81526004016104a29061255c565b6040805160018082528183019092526060916000919060208083019080368337019050509050828160008151811061190f5761190f612327565b602090810291909101015292915050565b6001600160a01b0384163b156114545760405163f23a6e6160e01b81526001600160a01b0385169063f23a6e619061196490899089908890889088906004016125a4565b6020604051808303816000875af192505050801561199f575060408051601f3d908101601f1916820190925261199c9181019061249a565b60015b6119ab576118056124b7565b6001600160e01b0319811663f23a6e6160e01b146116475760405162461bcd60e51b81526004016104a29061255c565b80356001600160a01b03811681146119f257600080fd5b919050565b60008060408385031215611a0a57600080fd5b611a13836119db565b946020939093013593505050565b6001600160e01b031981168114611a3757600080fd5b50565b600060208284031215611a4c57600080fd5b8135611a5781611a21565b9392505050565b600060208284031215611a7057600080fd5b5035919050565b6000815180845260005b81811015611a9d57602081850181015186830182015201611a81565b506000602082860101526020601f19601f83011685010191505092915050565b602081526000611a576020830184611a77565b6001600160a01b0385168152608060208201819052600090611af490830186611a77565b8281036040840152611b068186611a77565b90508281036060840152611b1a8185611a77565b979650505050505050565b634e487b7160e01b600052604160045260246000fd5b601f8201601f191681016001600160401b0381118282101715611b6057611b60611b25565b6040525050565b60006001600160401b03821115611b8057611b80611b25565b5060051b60200190565b600082601f830112611b9b57600080fd5b81356020611ba882611b67565b604051611bb58282611b3b565b83815260059390931b8501820192828101915086841115611bd557600080fd5b8286015b84811015611bf05780358352918301918301611bd9565b509695505050505050565b600082601f830112611c0c57600080fd5b81356001600160401b03811115611c2557611c25611b25565b604051611c3c601f8301601f191660200182611b3b565b818152846020838601011115611c5157600080fd5b816020850160208301376000918101602001919091529392505050565b600080600080600060a08688031215611c8657600080fd5b611c8f866119db565b9450611c9d602087016119db565b935060408601356001600160401b0380821115611cb957600080fd5b611cc589838a01611b8a565b94506060880135915080821115611cdb57600080fd5b611ce789838a01611b8a565b93506080880135915080821115611cfd57600080fd5b50611d0a88828901611bfb565b9150509295509295909350565b60008060008060808587031215611d2d57600080fd5b84356001600160401b0380821115611d4457600080fd5b611d5088838901611bfb565b95506020870135915080821115611d6657600080fd5b611d7288838901611bfb565b9450604087013593506060870135915080821115611d8f57600080fd5b50611d9c87828801611bfb565b91505092959194509250565b60008060408385031215611dbb57600080fd5b82356001600160401b0380821115611dd257600080fd5b818501915085601f830112611de657600080fd5b81356020611df382611b67565b604051611e008282611b3b565b83815260059390931b8501820192828101915089841115611e2057600080fd5b948201945b83861015611e4557611e36866119db565b82529482019490820190611e25565b96505086013592505080821115611e5b57600080fd5b50611e6885828601611b8a565b9150509250929050565b600081518084526020808501945080840160005b83811015611ea257815187529582019590820190600101611e86565b509495945050505050565b602081526000611a576020830184611e72565b60008060408385031215611ed357600080fd5b8235915060208301356001600160401b03811115611ef057600080fd5b611e6885828601611bfb565b60006020808301818452808551808352604092508286019150828160051b87010184880160005b83811015611fa557888303603f19018552815180516001600160a01b0316845287810151608089860181905290611f5c82870182611a77565b9150508782015185820389870152611f748282611a77565b91505060608083015192508582038187015250611f918183611a77565b968901969450505090860190600101611f23565b509098975050505050505050565b60008060408385031215611fc657600080fd5b611fcf836119db565b915060208301358015158114611fe457600080fd5b809150509250929050565b60006020828403121561200157600080fd5b81356001600160401b0381111561201757600080fd5b61202384828501611bfb565b949350505050565b60006020828403121561203d57600080fd5b611a57826119db565b83151581526060602082015260006120616060830185611a77565b82810360408401526120738185611a77565b9695505050505050565b60008060006060848603121561209257600080fd5b83356001600160401b03808211156120a957600080fd5b6120b587838801611bfb565b945060208601359150808211156120cb57600080fd5b6120d787838801611bfb565b935060408601359150808211156120ed57600080fd5b506120fa86828701611bfb565b9150509250925092565b6000806040838503121561211757600080fd5b612120836119db565b915061212e602084016119db565b90509250929050565b600080600080600060a0868803121561214f57600080fd5b612158866119db565b9450612166602087016119db565b9350604086013592506060860135915060808601356001600160401b0381111561218f57600080fd5b611d0a88828901611bfb565b600181811c908216806121af57607f821691505b602082108103610e5857634e487b7160e01b600052602260045260246000fd5b6020808252602e908201527f455243313135353a2063616c6c6572206973206e6f7420746f6b656e206f776e60408201526d195c881bdc88185c1c1c9bdd995960921b606082015260800190565b601f82111561226357600081815260208120601f850160051c810160208610156122445750805b601f850160051c820191505b8181101561145457828155600101612250565b505050565b81516001600160401b0381111561228157612281611b25565b6122958161228f845461219b565b8461221d565b602080601f8311600181146122ca57600084156122b25750858301515b600019600386901b1c1916600185901b178555611454565b600085815260208120601f198616915b828110156122f9578886015182559484019460019091019084016122da565b50858210156123175787850151600019600388901b60f8161c191681555b5050505050600190811b01905550565b634e487b7160e01b600052603260045260246000fd5b634e487b7160e01b600052601160045260246000fd5b6000600182016123655761236561233d565b5060010190565b60208082526025908201527f455243313135353a207472616e7366657220746f20746865207a65726f206164604082015264647265737360d81b606082015260800190565b6020808252602a908201527f455243313135353a20696e73756666696369656e742062616c616e636520666f60408201526939103a3930b739b332b960b11b606082015260800190565b808201808211156104ce576104ce61233d565b6040815260006124216040830185611e72565b82810360208401526124338185611e72565b95945050505050565b6001600160a01b0386811682528516602082015260a06040820181905260009061246890830186611e72565b828103606084015261247a8186611e72565b9050828103608084015261248e8185611a77565b98975050505050505050565b6000602082840312156124ac57600080fd5b8151611a5781611a21565b600060033d11156124d05760046000803e5060005160e01c5b90565b600060443d10156124e15790565b6040516003193d81016004833e81513d6001600160401b03816024840111818411171561251057505050505090565b82850191508151818111156125285750505050505090565b843d87010160208285010111156125425750505050505090565b61255160208286010187611b3b565b509095945050505050565b60208082526028908201527f455243313135353a204552433131353552656365697665722072656a656374656040820152676420746f6b656e7360c01b606082015260800190565b6001600160a01b03868116825285166020820152604081018490526060810183905260a060808201819052600090611b1a90830184611a7756fea26469706673582212201497dc7c7f374336eb503f73604d3be42bdd303977cb00dab2f624489071a31664736f6c63430008140033",
  "devdoc": {
    "events": {
      "ApprovalForAll(address,address,bool)": {
        "details": "Emitted when `account` grants or revokes permission to `operator` to transfer their tokens, according to `approved`."
      },
      "TransferBatch(address,address,address,uint256[],uint256[])": {
        "details": "Equivalent to multiple {TransferSingle} events, where `operator`, `from` and `to` are the same for all transfers."
      },
      "TransferSingle(address,address,address,uint256,uint256)": {
        "details": "Emitted when `value` tokens of token type `id` are transferred from `from` to `to` by `operator`."
      },
      "URI(string,uint256)": {
        "details": "Emitted when the URI for token type `id` changes to `value`, if it is a non-programmatic URI. If an {URI} event was emitted for `id`, the standard https://eips.ethereum.org/EIPS/eip-1155#metadata-extensions[guarantees] that `value` will equal the value returned by {IERC1155MetadataURI-uri}."
      }
    },
    "kind": "dev",
    "methods": {
      "balanceOf(address,uint256)": {
        "details": "See {IERC1155-balanceOf}. Requirements: - `account` cannot be the zero address."
      },
      "balanceOfBatch(address[],uint256[])": {
        "details": "See {IERC1155-balanceOfBatch}. Requirements: - `accounts` and `ids` must have the same length."
      },
      "isApprovedForAll(address,address)": {
        "details": "See {IERC1155-isApprovedForAll}."
      },
      "safeBatchTransferFrom(address,address,uint256[],uint256[],bytes)": {
        "details": "See {IERC1155-safeBatchTransferFrom}."
      },
      "safeTransferFrom(address,address,uint256,uint256,bytes)": {
        "details": "See {IERC1155-safeTransferFrom}."
      },
      "setApprovalForAll(address,bool)": {
        "details": "See {IERC1155-setApprovalForAll}."
      },
      "supportsInterface(bytes4)": {
        "details": "See {IERC165-supportsInterface}."
      },
      "uri(uint256)": {
        "details": "See {IERC1155MetadataURI-uri}. This implementation returns the same URI for *all* token types. It relies on the token type ID substitution mechanism https://eips.ethereum.org/EIPS/eip-1155#metadata[defined in the EIP]. Clients calling this function must replace the `\\{id\\}` substring with the actual token type ID."
      }
    },
    "version": 1
  },
  "userdoc": {
    "kind": "user",
    "methods": {},
    "version": 1
  },
  "storageLayout": {
    "storage": [
      {
        "astId": 25,
        "contract": "contracts/EBF.sol:EBF",
        "label": "_balances",
        "offset": 0,
        "slot": "0",
        "type": "t_mapping(t_uint256,t_mapping(t_address,t_uint256))"
      },
      {
        "astId": 31,
        "contract": "contracts/EBF.sol:EBF",
        "label": "_operatorApprovals",
        "offset": 0,
        "slot": "1",
        "type": "t_mapping(t_address,t_mapping(t_address,t_bool))"
      },
      {
        "astId": 33,
        "contract": "contracts/EBF.sol:EBF",
        "label": "_uri",
        "offset": 0,
        "slot": "2",
        "type": "t_string_storage"
      },
      {
        "astId": 2079,
        "contract": "contracts/EBF.sol:EBF",
        "label": "deployer",
        "offset": 0,
        "slot": "3",
        "type": "t_address"
      },
      {
        "astId": 2083,
        "contract": "contracts/EBF.sol:EBF",
        "label": "tokenURIs",
        "offset": 0,
        "slot": "4",
        "type": "t_mapping(t_uint256,t_string_storage)"
      },
      {
        "astId": 2088,
        "contract": "contracts/EBF.sol:EBF",
        "label": "users",
        "offset": 0,
        "slot": "5",
        "type": "t_mapping(t_address,t_struct(User)2107_storage)"
      },
      {
        "astId": 2092,
        "contract": "contracts/EBF.sol:EBF",
        "label": "isRegistered",
        "offset": 0,
        "slot": "6",
        "type": "t_mapping(t_address,t_bool)"
      },
      {
        "astId": 2097,
        "contract": "contracts/EBF.sol:EBF",
        "label": "projects",
        "offset": 0,
        "slot": "7",
        "type": "t_mapping(t_uint256,t_struct(Project)2116_storage)"
      },
      {
        "astId": 1800,
        "contract": "contracts/EBF.sol:EBF",
        "label": "projectCounter",
        "offset": 0,
        "slot": "8",
        "type": "t_uint256"
      }
    ],
    "types": {
      "t_address": {
        "encoding": "inplace",
        "label": "address",
        "numberOfBytes": "20"
      },
      "t_bool": {
        "encoding": "inplace",
        "label": "bool",
        "numberOfBytes": "1"
      },
      "t_mapping(t_address,t_bool)": {
        "encoding": "mapping",
        "key": "t_address",
        "label": "mapping(address => bool)",
        "numberOfBytes": "32",
        "value": "t_bool"
      },
      "t_mapping(t_address,t_mapping(t_address,t_bool))": {
        "encoding": "mapping",
        "key": "t_address",
        "label": "mapping(address => mapping(address => bool))",
        "numberOfBytes": "32",
        "value": "t_mapping(t_address,t_bool)"
      },
      "t_mapping(t_address,t_struct(User)2107_storage)": {
        "encoding": "mapping",
        "key": "t_address",
        "label": "mapping(address => struct Structs.User)",
        "numberOfBytes": "32",
        "value": "t_struct(User)2107_storage"
      },
      "t_mapping(t_address,t_uint256)": {
        "encoding": "mapping",
        "key": "t_address",
        "label": "mapping(address => uint256)",
        "numberOfBytes": "32",
        "value": "t_uint256"
      },
      "t_mapping(t_uint256,t_mapping(t_address,t_uint256))": {
        "encoding": "mapping",
        "key": "t_uint256",
        "label": "mapping(uint256 => mapping(address => uint256))",
        "numberOfBytes": "32",
        "value": "t_mapping(t_address,t_uint256)"
      },
      "t_mapping(t_uint256,t_string_storage)": {
        "encoding": "mapping",
        "key": "t_uint256",
        "label": "mapping(uint256 => string)",
        "numberOfBytes": "32",
        "value": "t_string_storage"
      },
      "t_mapping(t_uint256,t_struct(Project)2116_storage)": {
        "encoding": "mapping",
        "key": "t_uint256",
        "label": "mapping(uint256 => struct Structs.Project)",
        "numberOfBytes": "32",
        "value": "t_struct(Project)2116_storage"
      },
      "t_string_storage": {
        "encoding": "bytes",
        "label": "string",
        "numberOfBytes": "32"
      },
      "t_struct(Project)2116_storage": {
        "encoding": "inplace",
        "label": "struct Structs.Project",
        "members": [
          {
            "astId": 2109,
            "contract": "contracts/EBF.sol:EBF",
            "label": "registeredBy",
            "offset": 0,
            "slot": "0",
            "type": "t_address"
          },
          {
            "astId": 2111,
            "contract": "contracts/EBF.sol:EBF",
            "label": "projectName",
            "offset": 0,
            "slot": "1",
            "type": "t_string_storage"
          },
          {
            "astId": 2113,
            "contract": "contracts/EBF.sol:EBF",
            "label": "projectType",
            "offset": 0,
            "slot": "2",
            "type": "t_string_storage"
          },
          {
            "astId": 2115,
            "contract": "contracts/EBF.sol:EBF",
            "label": "ipfsURI",
            "offset": 0,
            "slot": "3",
            "type": "t_string_storage"
          }
        ],
        "numberOfBytes": "128"
      },
      "t_struct(User)2107_storage": {
        "encoding": "inplace",
        "label": "struct Structs.User",
        "members": [
          {
            "astId": 2102,
            "contract": "contracts/EBF.sol:EBF",
            "label": "isVerified",
            "offset": 0,
            "slot": "0",
            "type": "t_bool"
          },
          {
            "astId": 2104,
            "contract": "contracts/EBF.sol:EBF",
            "label": "name",
            "offset": 0,
            "slot": "1",
            "type": "t_string_storage"
          },
          {
            "astId": 2106,
            "contract": "contracts/EBF.sol:EBF",
            "label": "hometown",
            "offset": 0,
            "slot": "2",
            "type": "t_string_storage"
          }
        ],
        "numberOfBytes": "96"
      },
      "t_uint256": {
        "encoding": "inplace",
        "label": "uint256",
        "numberOfBytes": "32"
      }
    }
  }
}